:020000040000FA
:100000000213D0E5E6A2E1920053E6FD752901C393
:10001000E5299403748094805009AF2912171105C3
:100020002980EC30000343E6022222021E68E4FF2E
:10003000121DDE78557605759611759760E5962048
:10004000E7FB22020DC3E4F539F53AF53B121A9F9E
:10005000E4F53CF53D053DE53D7002053CE53DB46C
:10006000D0F3E53CB407EE121C25121C43E4F53630
:10007000C3E536942874809480501E74C82536F5E4
:1000800082E43400F583E4F074A02536F582E4348C
:1000900000F583E4F0053680D7E4F537C3E53794FF
:1000A0000174809480501EE53775F01EA4FFE5377B
:1000B00025E02409F582E43401F583E5F0F0A3EFAF
:1000C000F0053780D77F407E9C121C7E121B06AF46
:1000D000BF53E6FD8FBF900096E0900108F0E0600E
:1000E00031E4F536E536C3940574809480501E746F
:1000F000F22536F582E43400F583E0FE749025366F
:10010000F582E43400F583EEF0053680D7E4900004
:1001100096F0900113E090009FF0E0603990009518
:10012000E0900107F0E4F538E538C3940874809452
:1001300080501E74972538F582E43400F583E0FE84
:10014000740B2538F582E43401F583EEF005388030
:10015000D7E4900113F0AFBF43E6028FBF900108D0
:10016000E060031216AB90009FE0600E900107E084
:10017000FF7B017A01790B120A45E50E700302003C
:10018000CFE4F50E121E6E8F3AEF64067044AF395D
:10019000FEC3EF9419748094805004C2B5802BC3C1
:1001A000EF9432EE648094805004D2B5801CC3EF8B
:1001B000944BEE648094805004C2B5800DC3EF94DC
:1001C00064EE648094805002D2B5E53A653B6028C5
:1001D000801DC3E5399432748094805004C2B58088
:1001E00002D2B5E53A653B600FE53B6406700985D0
:1001F0003A3B121C25121C43E53A640670030204C4
:100200001E121644E4F536C3E536940574809480D6
:10021000501174902536F582E43400F583E4F0053E
:100220003680E4E4F536C3E5369428748094805033
:100230004774A02536F582E43400F583E06035E5A7
:100240003625E02470F582E4341FF583E49324908E
:10025000F582E43400F583C083C082E0FFE53625F3
:10026000E02471F582E4341FF583E493FEEF4ED071
:1002700082D083F0053680AE1216ABE4F537C3E5C5
:1002800037940174809480400302041EE53725E012
:100290002409F582E43401F583E0FEA3E04E7058B2
:1002A000F538C3E538940874809480504B1217CD0C
:1002B000EF540FFFE53775F008A424FFF582E4340E
:1002C00000F583E5822538F582E43583F583EFF088
:1002D000E53775F008A424FFF582E43400F583E5E2
:1002E000822538F582E43583F583E0C3940A74806F
:1002F000948050B9053880AAE53725E02409F582B5
:10030000E43401F583A3E054037058F538C3E538AD
:10031000940874809480504B1217CDEF540FFFE572
:100320003775F008A424F7F582E43400F583E582FC
:100330002538F582E43583F583EFF0E53775F0086D
:10034000A424F7F582E43400F583E5822538F582AC
:10035000E43583F583E0C3940A7480948050B90532
:100360003880AAE4F538C3E5389408748094805046
:100370006AE53875F018A42418FFE435F0FEE53777
:1003800025E02409F582E43401F583E0FCA3E0C311
:100390009FEC9EE53775F008400AA424FFF582E43F
:1003A00034008008A424F7F582E43400F583E58264
:1003B0002538F582E43583F583E0FFEF2430FF74C0
:1003C0000B2538F582E43401F583EFF07B017A01E7
:1003D000790BAF37120A450538808BE53725E024C5
:1003E00009F582E43401F583E475F0011204C9E5EE
:1003F0003725E02409F582E43401F583E0FEA3E02B
:10040000C3942CEE94014011E53725E02409F582D0
:10041000E43401F583E4F0A3F0053702027E0539E8
:10042000E539646460030200CFF5390200CFBB01F7
:100430000689828A83E0225002E722BBFE02E32281
:1004400089828A83E49322BB010CE58229F582E547
:10045000833AF583E0225006E92582F8E622BBFEC6
:1004600006E92582F8E222E58229F582E5833AF55C
:1004700083E49322BC000BBE0029EF8DF084FFAD16
:10048000F022E4CCF875F008EF2FFFEE33FEEC33EA
:10049000FCEE9DEC984005FCEE9DFE0FD5F0E9E4E6
:1004A000CEFD22EDF8F5F0EE8420D21CFEADF07505
:1004B000F008EF2FFFED33FD4007985006D5F0F21E
:1004C00022C398FD0FD5F0EA22C5F0F8A3E028F08A
:1004D000C5F0F8E582158270021583E038F022BB82
:1004E0000110E58229F582E5833AF583E0F5F0A372
:1004F000E0225009E92582F886F008E622BBFE0AD0
:10050000E92582F8E2F5F008E222E5832AF583E99D
:1005100093F5F0A3E99322BB010789828A83020540
:10052000705005E9F8020567BBFE05E9F802057998
:1005300089828A83020582BB010DE58229F582E565
:10054000833AF5830205705007E92582F8020567B2
:10055000BBFE07E92582F8020579E58229F582E5E7
:10056000833AF583020582E6FB08E6FA08E6F922FB
:10057000E0FBA3E0FAA3E0F922E2FB08E2FA08E2DA
:10058000F922E493FB740193FA740293F9228F2603
:100590007527FDA807E6FFC4135403600302064F46
:1005A000EFC413131354016401600302064FE654B1
:1005B0001F6401600302064FE804F8E624FA6003B2
:1005C0000206E6E5262402F9E764227038E52624CF
:1005D00004F8E6FE08E660030206E6EE60030206A3
:1005E000E67BFF7A1E79CDE5262406F8E6FE08E6CE
:1005F000FFC374449FE49E500A7C007D447E007FCC
:100600004480458043E5262402F9E7642160030223
:1006100006E6E5262404F8E6FE08E660030206E6A0
:10062000EE60030206E67BFF7A1E79B6E526240615
:10063000F8E6FE08E6FFC374099FE49E500A7C00BA
:100640007D097E007F0980008E2C8F2D0206DCA89C
:1006500026E6FFC4135403640160030206E6EF5468
:100660001F640160030206E6E82405F9E7194770F4
:1006700075E804F8E624FE602E24F87069E5262467
:1006800002F8E6FE08E6705EE5262407F9E719475A
:100690007054A826E6FDC413131354016401604688
:1006A000EEFF121CC5803CE5262403F9E7194770CC
:1006B00035E5262407F9E7640119477029A826E6DD
:1006C000FFC413131354016401701B121E898F0998
:1006D0007B007A007909752C00752D01C200E4FFBA
:1006E000120F4DE4F527AF27228E258F26121D030A
:1006F000E50860030207ABC3E50A94107480948098
:10070000505FE50A20E02075A5FFD2A1E4F580E561
:100710000AC313FFF87401088002C333D8FCF4F550
:1007200090C2A2D2A28036E4F5A5C2A175801CC2F7
:10073000A2F527AF27C3EF940A7480948050040574
:100740002780F0E590F4FFE50AC3132488F582E4DE
:100750003400F583EFF0D2A2D2A175A5FF050A807F
:100760004A75A5FFD2A1E4F5807590FFC2A2D2A27E
:10077000FFEFC3940874809480502D74802FF5820D
:10078000E43400F583E0FE74882FF582E43400F54C
:1007900083E0FD6E600375080174802FF582E434F8
:1007A00000F583EDF00F80C9E4F50A121DAE506725
:1007B0007F01121B604060E508605C90004074029D
:1007C000F0900088E0900041F0900089E0900042B5
:1007D000F090008AE0900043F090008BE09000449D
:1007E000F090008CE0900045F090008DE090004685
:1007F000F090008EE0900047F090008FE09000486D
:10080000F07B017A007940752C00752D09C2007FBC
:1008100001120F4DE4F508227856E6139200785342
:10082000E6FE08E6FFC39440EE940040047F40805B
:10083000008F26852627784FE6FF547F6401706F6E
:10084000EFC413131354016401702608860308E6ED
:10085000FA08E6F9C2027D02E4FF12156D785274BF
:100860000226F618E436F615261526784FE6547F4C
:10087000F6E4F528E526C313FFE528C39F504D781D
:1008800050860308E6FA08E6F9C2027D01E4FF1289
:10089000156D7852740126F618E436F67BFF7A1F40
:1008A00079C0C2027D01E4FF12156D052880C5786C
:1008B00050860308E6FA08E6F9C202AD26E4FF1204
:1008C000156D7852E52626F618E436F67856E65485
:1008D000FBF6C37854E69527FF18E69400FEF60869
:1008E000EFF64E70207856E6C454017018759611D4
:1008F00075970AE59620E7FB78557601E4784FF680
:100900007856F68018759611759702E59620E7FBE4
:100910007854E6184670067856E654EFF630001420
:10092000E527FB7A007853E6F52D08E6F52EE4FD81
:10093000FF12120522E4FDFC752AFF7847E6648069
:100940006003020A427849E6FE08E6F526EEFFE477
:100950006003020A20EF24FE602A14604E24026025
:1009600003020A20E5266003020A20786586030850
:10097000E6FA08E6F98B278A28F52912042E7C006E
:10098000FD020A20E5266003020A20786886030833
:10099000E6FA08E6F98B278A28F529900002120466
:1009A000DFFAE5F0FFEAFCEFFD8075786B8603085F
:1009B000E6FA08E6F975F003E526A4F58285F083EA
:1009C0001205378B278A288929E526700BFC7D04C0
:1009D000784FE65480F68048784BE6FE08E6FF4EF6
:1009E000600AEF64097003EE64047034E526C3788E
:1009F0004496502CAB27AA28A9299000011204473D
:100A00007C00FD12042E547FFF784FE654804FFF88
:100A1000F674012529F529E43528F528EF4480F6F8
:100A2000ED4C601E784DE6FE08E6FFD3ED9FEC9E90
:100A30004004AC06AD07AB27AA28A929121AD3E4B3
:100A4000F52AAF2A2285BF3F53E6FD853FBFD2A2DC
:100A5000D2A1EFB40A004003020B44900A62F828C6
:100A60002873020A80020A85020A8A020A8F020A91
:100A700094020A99020A9E020AA3020AA8020AAD77
:100A8000754004802B754024802675404080217578
:100A90004048801C75405080177540588012754042
:100AA00060800D75406880087540708003754078DF
:100AB000E5404403F58012042EF590C2A2D2A2E5CF
:100AC000404402F580900001120447F590C2A2D282
:100AD000A2E5404401F580900002120447F590C25F
:100AE000A2D2A2854080900003120447F590C2A2D2
:100AF000D2A274042540F5404403F580900004120E
:100B00000447F590C2A2D2A2E5404402F5809000CD
:100B100005120447F590C2A2D2A2E5404401F58037
:100B2000900006120447F590C2A2D2A285408090A0
:100B30000007120447F590C2A2D2A285BF3F43E648
:100B400002853FBF227525FDE4FF121DDE121D4602
:100B50004005121D39501D759611E4F597E5962054
:100B6000E7FB759611759780E59620E7FB7855763B
:100B700001E408F6121DBB4003020C197856E6FF8B
:100B8000131313540164017004EF020C167855E638
:100B900064017073784FF61217747F4712058E8FB9
:100BA00025EF3395E0FEBEFF12BFFD0F7847E6FF4D
:100BB000C413540370051218218F25E4FF121DDEA3
:100BC000AF25EF3395E04F7039784EE61846700D3B
:100BD000759611759748E59630E73E80F975961140
:100BE000759740E59620E7FB7847E6FFC41313139B
:100BF000540170257855E66403601E08E64408F643
:100C0000801712002E80127855E6640370051212C8
:100C1000A580067856E64402F67855E66402700828
:100C2000121D53400312081822C2007F01121DDE5C
:100C3000121D6D5015759694E59620E7FB5397BFEE
:100C4000E59620E703020CFB80F6121DC740030265
:100C50000CFB121E738F257863E66403600A08E6B6
:100C60004402F67526F9806DC37862E6952518E68C
:100C70009400500E7863760108E64402F67526F279
:100C80008053785E860308E6FA08E6F9AD257F0111
:100C90001218C37864E654FDF6AF257E00C378626F
:100CA000E69FF618E69EF618EF26F618EE36F6786A
:100CB00062E618466006E5256440600678637601C2
:100CC000D200E4F526759694E59620E7FB5397FE4F
:100CD000E59620E7FB7864E6FF54016401701C3060
:100CE0000004EF54FEF6E525FB7A007861E6F52D69
:100CF00008E6F52EAD267F02121205227526FF7832
:100D00004EE6640218466003020DC0784AE61846B3
:100D10006003020DC07847E6FFC413131354016447
:100D2000016003020DC07845E6C39404748094808A
:100D30005003020DC0E4F511F512EF541F146018B2
:100D400014602324027065784CE61846705E121E0B
:100D50008E50564311018051C3784CE6940118E639
:100D6000940050488043784BE6FE08E6FFAC0654FA
:100D70007F4C700B7845E664047004F526802D786E
:100D800045E664067026EF247F60122480701D788B
:100D900063E664067005751101F512800C785CE657
:100DA00064067005751101F512E4F526AF26EF33E0
:100DB00095E04F700BFB7A0079117D02FC121AD37B
:100DC000AF2622C0E0C0F0C083C082C0D075D00082
:100DD000C000C001C002C003C004C005C006C007F7
:100DE000121DE98F21121DF48F22121DFF8F231275
:100DF0001E0A8F24E52130E340121E781206E9789E
:100E000056E6FFC31354016401700618E6640360DC
:100E100010EF131354016401700A7855E6640270F0
:100E2000034322017864E6FFC3135401640170098F
:100E300018E664037003432302E52130E20312192C
:100E40004DE52130E103121E5AE52130E003121D69
:100E500017E52230E10312115DE52330E103120CA6
:100E600029E52230E003120B45AF24121DDED00726
:100E7000D006D005D004D003D002D001D000D0D00D
:100E8000D082D083D0F0D0E0327526FF7849E6607A
:100E900003020F4A7847E6541F6003020F4A784E58
:100EA000E618466003020F4A18E618466003020F70
:100EB0004A7845E66404704B7849E6FE08E6FF4E42
:100EC00060167868860308E6FA08E6F990000512CD
:100ED00004476F7001EE7072784AE67843F67868DE
:100EE000860308E6FA08E6F9900005120447784AF6
:100EF00066700218E67050D200121B377F06121976
:100F0000C780447845E6640670407849E6FE08E606
:100F1000FF4E60177868860308E6FA08E6F9900045
:100F200005120447B50723E4B5061F784AE678435F
:100F3000F6784AE61846700A7F041219C7120003B1
:100F40008005C200121B37E4F526AF26228F288BBE
:100F5000298A2A892BE528600B1460088000121E5C
:100F60008C7FFC22E528600A7845E6640660037FF2
:100F7000F722E52875F007A42450F9AF01EF240506
:100F8000F8E6FD6401600AED64057FFE70027FFBF8
:100F900022E5E6A2E1920153E6FDAA2AA92BA807C1
:100FA000A62908A60208A601EF2403F8A62C08A685
:100FB0002DEF2405F87602A200E4335401FEEF245D
:100FC00006F8E654FE4EF6E52814600B04702C7803
:100FD00056E64404F68024D3E52D9440E52C940095
:100FE00040047D408004AF2DAD077857860308E6A6
:100FF000FA08E6F9D2027F0112156D30010343E6CB
:10100000027F00228B3F8A40894153E6FD12002A6D
:10101000E4FFEFC3942B74809480500974432FF83D
:10102000E4F60F80EDAB3FAA40A9411205177865A1
:10103000A60308A60208A601AB3FAA40A94190005A
:10104000031205377868A60308A60208A601AB3F7D
:10105000AA40A941900006120537786BA60308A69E
:101060000208A601AB3FAA40A9419000091204471B
:101070007844F653A98F43D720759601759708E5F4
:101080009620E7FB75960B75970FE59620E7FB1208
:101090001DD3E5C9A2E678455004760380027601A7
:1010A00043E602759601759701E59620E7FB7F0000
:1010B000227526FF784EE61846600302115A7847DB
:1010C000E6541F24FE600302115A784AE61846606F
:1010D0000302115A784BE6FE08E6547FFF4E70116A
:1010E0007845E6C39404748094804005E4F5268036
:1010F00069C3EF9403EE940050607845E66406708F
:1011000059F526784CE6547FFF121DDE784CE63008
:10111000E70B759611759740E59620E7FB784CE64E
:1011200020E718759694E59620E7FB5397DFE59640
:1011300020E7FB439780E59620E7FB784CE6247F89
:10114000600F248070147863E66403600D7601807C
:1011500009785CE6640260027601AF26227F011204
:101160001DDE121D605010759611E4F597E596206E
:10117000E70302120480F6785CE664026003021260
:1011800004785AE6FE08E6FFD39440EE940040044B
:101190007F4080008F257E00C3785BE69FF618E6CF
:1011A0009EF618EF26F618EE36F6785DE6139200F6
:1011B000785AE6FE08E6FFD39400EE94004024D36C
:1011C000EF9440EE940040047D408004785BE6FD9F
:1011D0007857860308E6FA08E6F9D2027F0112156D
:1011E0006D8009785DE654FEF6187601300015E54D
:1011F00025FB7A00785AE6F52D08E6F52EE4FD7F0A
:1012000001121205228D2A8A2B8B2CEF64026003B7
:101210000212A1900000E0FF7E006401703990018D
:101220001304F0900001E0900095F0E4F52FC3E581
:101230002F94087480948050557402252FF582E411
:101240003400F583E0FD7497252FF582E43400F532
:1012500083EDF0052F80D7EF64044E703190009637
:1012600004F0E4F52FC3E52F940574809480501E9C
:101270007401252FF582E43400F583E0FF74F22534
:101280002FF582E43400F583EFF0052F80D77B0142
:101290007A007900753400753510D2017F0212147E
:1012A0005FE4FEFF227856E6139200121E158F2689
:1012B000C37854E69F18E69400500E7855760108DE
:1012C000E64402F67527F2805A7850860308E6FA5B
:1012D00008E6F9AD26E4FF1218C3AF267E00785267
:1012E000EF26F618EE36F6C37854E69FFF18E69E12
:1012F000FEF608EFF6E4F527EF4E701CE526644095
:101300006016759611759748E59620E7FB78557637
:101310000108E654FEF6800B759611759740E59628
:1013200020E7FB300015E526FB7A007853E6F52D23
:1013300008E6F52EAD27E4FF121205227526FF7888
:101340004EE6184660030213CD7847E6541F24FE8C
:10135000707B784BE6FE08E6547FFF4E70117845AF
:10136000E6C39404748094804005E4F526805EC34F
:10137000EF9403EE94005055784AE61846704E7884
:1013800045E664067047F526784CE6547FFF121D4B
:10139000DE784CE630E70B759611759710E59620D0
:1013A000E7FB784CE620E710759694E59620E7FB7E
:1013B000439720E59620E7FB784CE6247F600A24DB
:1013C00080700A786376068004785C7606AF262201
:1013D000121E91787FE4F6D8FD75816D02141A0211
:1013E0000046E493A3F8E493A34003F68001F208D7
:1013F000DFF48029E493A3F85407240CC8C333C452
:10140000540F4420C8834004F456800146F6DFE4BC
:10141000800B0102040810204080901BE9E47E014B
:101420009360BCA3FF543F30E509541FFEE493A32F
:1014300060010ECF54C025E060A840B8E493A3FA41
:10144000E493A3F8E493A3C8C582C8CAC583CAF0CD
:10145000A3C8C582C8CAC583CADFE9DEE780BE8FDC
:10146000308B318A328933E530600C24FE6008808D
:1014700000121E8C7FFC22E530600A7845E6640687
:1014800060037FF722E53075F007A42450F9AF011F
:10149000EF2405F8E6FD6401600AED64057FFE7047
:1014A000447FFB22E5E6A2E1920253E6FDAA32A9BF
:1014B00033A807A63108A60208A601EF2403F8A660
:1014C0003408A635EF2405F87603A201E43354016D
:1014D000FEEF2406F8E654FE4EF654F7F63002030B
:1014E00043E6027F0022AE07E4FB121DDE3002134A
:1014F000A8067E007410088005C333CE33CED8F919
:10150000FF8013AF067E007420A807088005C33350
:10151000CE33CED8F9FFD3ED9FEC9E50034303802A
:1015200030030343034030012043032030020343D0
:101530000304759611759740E59620E7FB759612A2
:101540008B97E59630E72580F9759614759780E5B9
:101550009620E7FB7596158B97E59620E7FB200212
:101560000B759612E4F597E59620E7FB228F2E8DFA
:101570002F8B308A318932E59620E7FBE52E442017
:10158000F596E5301460132403601A14602014707B
:1015900026AD32AF2F121CDB801DAC31AD32AF2F28
:1015A000121CAF8012AD32AF2F121CEF8009AC318C
:1015B000AD32AF2F121C98300220D3E52E94007468
:1015C0008094804015AF2E121DDE759691E5962011
:1015D000E7FB439701E59620E7FB227526FF784954
:1015E000E6FE08E6FFC39480EE94005054784EE681
:1015F0001846704D7847E6541F7046784CE61846FA
:10160000703F7845E66403700BEF4E601A7F04125A
:1016100019C780137845E66404700F784AE61846C7
:1016200070057F031219C7E4F526AF26EF3395E066
:101630004F700EF596784AE64480F597E59620E7D8
:10164000FBAF26229000F1E07054FFEFC3942874A2
:10165000809480504174A02FF582E43400F583E437
:10166000F0EF30E2149000F0E05403FEC374039EE8
:10167000FEEF5403B5061C800D9000F0E05403FE0D
:10168000EF5403B5060D74A02FF582E43400F58302
:101690007401F00F80B59000F0E0045407F0900062
:1016A000F1E004F0E064077001F0227B017A007938
:1016B00090AFBF53E6FD8FBFD2A2D2A175800C12AE
:1016C000042EF4F590C2A2D2A275801090000112EF
:1016D0000447F4F590C2A2D2A275801490000212C1
:1016E0000447F4F590C2A2D2A275801890000312AC
:1016F0000447F4F590C2A2D2A275802C9000041287
:101700000447F4F590C2A2D2A2AFBF43E6028FBF56
:10171000228F2BE4F52DEF6009C39403748094802D
:101720004008121E8C752DFC8041E5E6A2E1920175
:1017300053E6FDE52B75F007A42450F9892CE52C20
:101740002405F8E664016023E52B24FE600A04709A
:101750000C7F01121A3780057F01121A6BE52C24C9
:1017600005F87601E52C2406F8E4F630010343E69B
:1017700002AF2D22752647A9267A007B007D08E45A
:10178000FF1218C3E5262402F8E6FC08E6FAECFF8F
:10179000EAFEE5262402F8A60608A607E5262404A4
:1017A000F8E6FC08E6FAECFFEAFEE5262404F8A6D3
:1017B0000608A607E5262406F8E6FC08E6FAECFF8C
:1017C000EAFEE5262406F8A60608A60722AE0FE5DF
:1017D000107802CEC313CE13D8F9FFE50F6EFCE5E7
:1017E000106FFDAE0FE5107803CEC313CE13D8F9FA
:1017F000FFEE6CFCEF6DFDAE0FE5107805CEC31368
:10180000CE13D8F9FFEF6DC43333335480FCE50FAA
:10181000C313FEE51013FFEE4CF50FEFF510AE0FFE
:1018200022E4FF7848E6B40C005046901832F828BD
:10183000287302185602185902187102185C02180F
:101840007102185F021862021871021865021868A6
:1018500002186B02186E020CFC0210B102133C025B
:1018600015DB020935021874020E8902190E0219DD
:10187000FF7FFF227FFF784CE61846704518E61878
:1018800046703F784EE66401184670367847E6FEAB
:10189000C4131313540164017028EE541F7023788D
:1018A00045E6640470087BFF7A1F79C0800C784598
:1018B000E66406700DFB7A0079437D01FC121AD3B1
:1018C000E4FF228F288D298B2A8A2B892CD3E529A6
:1018D0009400748094804035E59620E7FBE5284429
:1018E000E0F596E52A1460112403601824FE701DAB
:1018F000AD2CAB28AF29021C61AC2BAD2CAB28AFB3
:1019000029021BA9AD2CAB28AF29121BCA22784B88
:10191000E6FE08E67DFFC39401EE9400502C784E5D
:10192000E6640118467023784AE61846701C78472A
:10193000E6648170157845E66406700E7BFF7A1FB9
:1019400079C07D01FC121AD3E4FDAF0522785576EB
:1019500001785C76067863760675960F75978FE545
:101960009620E7FB759601759701E59620E7FB75D4
:10197000960B75970FE59620E7FBE5C9A2E65004A4
:101980007F0380027F011219C7021E908F298D2AC2
:10199000AF2A7E00C3EF9405748094804028EF64E2
:1019A0000570057F01021711E52A640670187F187B
:1019B000121CC57B017A007900753400753510D290
:1019C000017F0212145F228F277845E6F528C39421
:1019D0000574809480400CEF9405748094805003CB
:1019E000120003E527640570047846A6287845A60A
:1019F00027E52865276007AD27AF2812198C227FBD
:101A0000FF784CE6FE784AE6FDEEC39401748094BC
:101A10008050237845E66406701C784EE6184670C0
:101A200015AE05EE70107847E6541F64017007C2CA
:101A300000121B37E4FF22121DDE75961175970800
:101A4000E59620E7FB759691E59620E7FBE5972064
:101A5000E3F3759611759708E59620E7FB75969167
:101A6000E59620E7FBE59720E3F322121DDE75964D
:101A700014759710E59620E7FB759694E59620E798
:101A8000FBE59720E4F3759614759710E59620E72B
:101A9000FB759694E59620E7FBE59720E4F3228515
:101AA000BF3E121E48121E20121E2A121E3E121D7A
:101AB0007A121D87121D94121DA1121E34121E7D52
:101AC000121D29121E85121E81121E61121E5185C1
:101AD0003EBF227855E66401702B7850A60308A615
:101AE0000208A60108A60408A60508760208F6ED75
:101AF000543F7011784EE66D700318E66C600678FE
:101B000056E64410F622E4FFEFC3942874809480D4
:101B1000501B74C82FF582E43400F583E4F074A000
:101B20002FF582E43400F583E4F00F80DBE49000CD
:101B3000F1F09000F0F022300008785C76017863D4
:101B40007601D201D202C2037D407C007F011214D3
:101B5000E6C201D202C2037D407C007F010214E68E
:101B60008F28C3EF9403748094804005121E8CD399
:101B700022E52875F007A42450F9E92405F8E66465
:101B800001D37001C322AD07ED4480F596E59620A0
:101B9000E7FBAF97EF7F00FEED144480F596E596E6
:101BA00020E7FBAD97ED4207228D828C831FEF600B
:101BB0000BE59620E7FBE597F0A380F1E59620E79B
:101BC000FBEB4420F596E597F022A8051FEF600B8C
:101BD000E59620E7FBE597F20880F1E59620E7FB24
:101BE000EB4420F596E597F222010800010A000176
:101BF0000E00410096004101130041010800410020
:101C00009F00020F000100D3E50B940074809480C4
:101C1000400CE50B75F004A485F00CF50D22750C55
:101C200000750D1822E4FFEFC39405748094805072
:101C300009743E2FF8E4F60F80ED7B007A00793EC0
:101C40000216B1E4F53EC3E53E94017480948050E1
:101C50000F7BFF7A1F7967AF3E120A45053E80E68B
:101C600022A8051FEF600AE59620E7FBA6970880EB
:101C7000F2E59620E7FBEB4420F596A69722E4F5E3
:101C8000C8538E9FC39FFFE49EF5CB8FCA74FFF5A8
:101C9000CDF5CCD2ADD2CA228D828C83AE071FEE99
:101CA000600CE59620E7FBE493F597A380EE228D88
:101CB000828C83AE071FEE600BE59620E7FBE0F514
:101CC00097A380EF22EF600EC39406748094805037
:101CD00005750B0680028F0B021C07A805AE071FB7
:101CE000EE600BE59620E7FBE6F5970880EF22A86B
:101CF00005AE071FEE600BE59620E7FBE2F59708BF
:101D000080EF22D3E50D9400E50C94004008E50D2A
:101D1000150D7002150C227845E6C3940274809468
:101D20008040057F051219C72275BC3875BA1F752A
:101D3000BB0643E84043E88022759691E59620E78C
:101D4000FBE597A2E422759691E59620E7FBE597DF
:101D5000A2E222759691E59620E7FBE597A2E122A3
:101D6000759691E59620E7FBE597A2E52275969496
:101D7000E59620E7FBE597A2E62275F1FF75A4FF43
:101D8000E4F58075D4FF2275F2FF75A5FFE4F590A8
:101D900075D5FF2275F3FF75A6FF75A00675D6FFF2
:101DA0002275F4FFE4F5A775B0FF75DFFF22E50D9E
:101DB000450C7005121C07D322C322759691E59637
:101DC00020E7FBE5971322759694E59620E7FBE55F
:101DD0009713227855760143D78043D740227596D2
:101DE0000E8F97E59620E7FB22759686E59620E70D
:101DF000FBAF9722759682E59620E7FBAF97227599
:101E00009684E59620E7FBAF972275968EE596209F
:101E1000E7FBAF9722759696E59620E7FBAF9722F2
:101E2000E5D8544042D875DA2122E5D8544042D84A
:101E300075DB212275F5FFE4F5AE75C7FF22E5D805
:101E4000544042D875DE0822E4F5BF53D9BFF5D916
:101E5000227BFF7A1F795D0210047846E6FF0219A3
:101E6000C7E4F5E675A88022C2CF750E0132784529
:101E7000E6FF227F17021B867F0D021B8675E2425A
:101E80002275A9032275D10822AF0B2280FED3222E
:101E90002222120100020000004047420F00000110
:101EA0000102030109022900010100803209040036
:101EB0000002030000000921110100012244000773
:101EC000058103400001070501034000010600FFF2
:101ED0000901A10185019509750826FF0015000972
:101EE00001910285029508750826FF001500090179
:101EF000810285039510750826FF001500090181F0
:101F00000285049505750826FF0015000901910258
:101F1000C004030904011C0362696B6572676C6588
:101F20006E2E636F6D00012C03437573746F6D200B
:101F30005553422048494420446576696365000151
:101F40001E03303030302D303030302D30303031D5
:101F500000FF1F11FF1F15FF1F26FF1F3FFF1E92CF
:101F6000FF1EA4FF1F51042020202020202020003D
:101F7000002000800102010800100040014001041F
:101F80000120018002020208011001010201020485
:101F9000022002800302030802100240030103042E
:101FA0000320038000020008031003400001000426
:101FB0000410042004020408044004800401040402
:021FC00000001F
:00000001FF
