:020000040000FA
:100000000210DEE5E6A2E1920053E6FD752901C388
:10001000E5299403748094805009AF2912143305A4
:100020002980EC30000343E6022222021BAFE4FFEA
:10003000121B2578507605759611759760E5962008
:10004000E7FB22020AC2E4F536F537F5381218410B
:10005000121995E4F539C3E53994207480948050E1
:100060001E74AA2539F582E43400F583E4F0748A1D
:100070002539F582E43400F583E4F0053980D7E4CE
:10008000F509F517F539C3E5399405748094805066
:100090000B74122539F8E4F6053980EA7F407E9C1E
:1000A0001219B21217A385BF3553E6FD8535BF90EF
:1000B0000089E09000E1F0E06031E4F539C3E53912
:1000C000940974809480501E74D82539F582E434E4
:1000D00000F583E0FF74802539F582E43400F58370
:1000E000EFF0053980D7E4900089F085BF3543E60D
:1000F000028535BF9000E1E0606FE4F0F539C3E5BB
:1001000039942074809480503AE5391313543F2475
:1001100080F582E43400F583E0FFE539540325E0FF
:10012000FEC374069EFEF8EF088002C313D8FC5489
:1001300003FF748A2539F582E43400F583EFF00576
:100140003980BB120D037539FF900088E0FF30E75E
:100150000353397FEF30E6035339FEEF30E50353A5
:1001600039FDAD397F0612127BE50A70030200A645
:10017000E4F50A121BB58F37EF64067044AF36FE04
:10018000C3EF9419748094805004C286802BC3EF0F
:100190009432EE648094805004D286801CC3EF9425
:1001A0004BEE648094805004C286800DC3EF94644B
:1001B000EE648094805002D286E5376538602580F1
:1001C0001DC3E5369432748094805004C286800248
:1001D000D286E5376538600CE538640670068537E9
:1001E00038121995E53630E056E4F509F539C3E5DE
:1001F00039940574809480501EE53904FF12136011
:10020000EFF4F51774122539F8E6651760057509DE
:1002100001A617053980D7E509602485BF3553E667
:10022000FD8535BF75080185120D85130E85140FE8
:1002300085151085161185BF3543E6028535BFE566
:10024000376406602BE5367002800EE5366419705F
:10025000028010E536643270047D838008E53664E0
:100260004B70077D037F0612127B120752120D039B
:100270000536E536646460030200A6F5360200A682
:100280008F267527FDA807E6FFC4135403600302F9
:100290000341EFC4131313540164016003020341CB
:1002A000E6541F64016003020341E804F8E624FAFF
:1002B00060030203D8E5262402F9E764227038E5DA
:1002C000262404F8E6FE08E660030203D8EE600385
:1002D0000203D87BFF7A1C7914E5262406F8E6FE93
:1002E00008E6FFC374269FE49E500A7C007D267EAC
:1002F000007F2680458043E5262402F9E7642160DB
:10030000030203D8E5262404F8E6FE08E6600302AB
:1003100003D8EE60030203D87BFF7A1B79FDE52644
:100320002406F8E6FE08E6FFC374099FE49E500A1F
:100330007C007D097E007F0980008E2C8F2D0203BA
:10034000CEA826E6FFC4135403640160030203D859
:10035000EF541F640160030203D8E82405F9E7198C
:10036000477075E804F8E624FE602E24F87069E50D
:10037000262402F8E6FE08E6705EE5262407F9E783
:1003800019477054A826E6FDC413131354016401E1
:100390006046EEFF1219F9803CE5262403F9E719BF
:1003A000477035E5262407F9E7640119477029A845
:1003B00026E6FFC413131354016401701B121BD0F3
:1003C0008F1D7B007A00791D752C00752D01C200F0
:1003D000E4FF120C4CE4F527AF2722BB010689820B
:1003E0008A83E0225002E722BBFE02E32289828A4E
:1003F00083E49322BB010CE58229F582E5833AF57B
:1004000083E0225006E92582F8E622BBFE06E925B4
:1004100082F8E222E58229F582E5833AF583E493C6
:1004200022BC000BBE0029EF8DF084FFADF022E46A
:10043000CCF875F008EF2FFFEE33FEEC33FCEE9DA9
:10044000EC984005FCEE9DFE0FD5F0E9E4CEFD22D0
:10045000EDF8F5F0EE8420D21CFEADF075F008EF5B
:100460002FFFED33FD4007985006D5F0F222C398D8
:10047000FD0FD5F0EA22BB0110E58229F582E58364
:100480003AF583E0F5F0A3E0225009E92582F886E9
:10049000F008E622BBFE0AE92582F8E2F5F008E260
:1004A00022E5832AF583E993F5F0A3E99322BB01C2
:1004B0000789828A830205075005E9F80204FEBB1A
:1004C000FE05E9F802051089828A83020519BB013D
:1004D0000DE58229F582E5833AF583020507500789
:1004E000E92582F80204FEBBFE07E92582F8020531
:1004F00010E58229F582E5833AF583020519E6FBCA
:1005000008E6FA08E6F922E0FBA3E0FAA3E0F92204
:10051000E2FB08E2FA08E2F922E493FB740193FAA1
:10052000740293F9227851E6139200784EE6FE08A1
:10053000E6FFC39440EE940040047F4080008F2685
:10054000852627784AE6FF547F6401706FEFC41355
:10055000131354016401702608860308E6FA08E6BE
:10056000F9C2027D02E4FF1212F2784D740226F6FF
:1005700018E436F615261526784AE6547FF6E4F593
:1005800028E526C313FFE528C39F504D784B86030B
:1005900008E6FA08E6F9C2027D01E4FF1212F278D9
:1005A0004D740126F618E436F67BFF7A1C7990C26A
:1005B000027D01E4FF1212F2052880C5784B860304
:1005C00008E6FA08E6F9C202AD26E4FF1212F27854
:1005D0004DE52626F618E436F67851E654FBF6C3C8
:1005E000784FE69527FF18E69400FEF608EFF64EE2
:1005F00070207851E6C45401701875961175970AE9
:10060000E59620E7FB78507601E4784AF67851F6D3
:100610008018759611759702E59620E7FB784FE6EE
:10062000184670067851E654EFF6300014E527FBC3
:100630007A00784EE6F52D08E6F52EE4FDFF12145B
:10064000EF22E4FDFC752AFF7842E6648060030235
:10065000074F7844E6FE08E6F526EEFFE460030265
:10066000072DEF24FE602A14604E24026003020767
:100670002DE526600302072D7860860308E6FA0858
:10068000E6F98B278A28F5291203DB7C00FD020797
:100690002DE526600302072D7863860308E6FA0835
:1006A000E6F98B278A28F529900002120476FAE5EC
:1006B000F0FFEAFCEFFD80757866860308E6FA082D
:1006C000E6F975F003E526A4F58285F0831204CEE1
:1006D0008B278A288929E526700BFC7D04784AE659
:1006E0005480F680487846E6FE08E6FF4E600AEF42
:1006F00064097003EE64047034E526C3783F9650B5
:100700002CAB27AA28A9299000011203F47C00FD34
:100710001203DB547FFF784AE654804FFFF67401E2
:100720002529F529E43528F528EF4480F6ED4C60BD
:100730001E7848E6FE08E6FFD3ED9FEC9E4004AC31
:1007400006AD07AB27AA28A929121875E4F52AAF28
:100750002A229000D7E06003020837FEEEFD7C00FD
:10076000C3942074809480400302082FC3ED940446
:10077000748094805004AB068073C3ED9408EC64DD
:100780008094805006EE240CFB8062C3ED940CEC48
:10079000648094805006EE24FCFB8051C3ED9410DD
:1007A000EC648094805006EE2408FB8040C3ED94F6
:1007B00014EC648094805006EE24F8FB802FC3ED87
:1007C0009418EC648094805006EE2404FB801EC3D1
:1007D000ED941CEC648094805006EE24F4FB800DB4
:1007E000C3ED9420EC648094805002AB06748A2B95
:1007F000F582E43400F583E4F0EE30E2149000CAB0
:10080000E05403FDC374039DFDEE5403B5051C8045
:100810000D9000CAE05403FDEE5403B5050D748A33
:100820002BF582E43400F5837403F00E02075C902C
:1008300000CAE0045407F09000D7E004F0E0640739
:100840007001F0227525FDE4FF121B25121A8D4060
:1008500005121A80501D759611E4F597E59620E76C
:10086000FB759611759780E59620E7FB7850760129
:10087000E408F6121B0240030209187851E6FF1340
:100880001313540164017004EF0209157850E664F3
:10089000017073784AF61214967F421202808F25F7
:1008A000EF3395E0FEBEFF12BFFD0F7842E6FFC4B6
:1008B00013540370051215458F25E4FF121B25AF55
:1008C00025EF3395E04F70397849E61846700D757D
:1008D0009611759748E59630E73E80F97596117543
:1008E0009740E59620E7FB7842E6FFC413131354C4
:1008F0000170257850E66403601E08E64408F6801F
:100900001712002E80127850E664037005120FB3A0
:1009100080067851E64402F67850E66402700812C8
:100920001A9A400312052522C2007F01121B2512CC
:100930001AB45015759694E59620E7FB5397BFE5DA
:100940009620E7030209FA80F6121B0E4003020903
:10095000FA121BBA8F25785EE66403600A08E64443
:1009600002F67526F9806DC3785DE6952518E69444
:1009700000500E785E760108E64402F67526F28095
:10098000537859860308E6FA08E6F9AD257F011287
:1009900015E7785FE654FDF6AF257E00C3785DE687
:1009A0009FF618E69EF618EF26F618EE36F6785DF6
:1009B000E618466006E52564406006785E7601D25A
:1009C00000E4F526759694E59620E7FB5397FEE53F
:1009D0009620E7FB785FE6FF54016401701C30004D
:1009E00004EF54FEF6E525FB7A00785CE6F52D0869
:1009F000E6F52EAD267F021214EF227526FF784908
:100A0000E6640218466003020ABF7845E6184660AD
:100A100003020ABF7842E6FFC413131354016401B2
:100A20006003020ABF7840E6C39404748094805047
:100A300003020ABFE4F51BF51CEF541F14601814E1
:100A40006023240270657847E61846705E121BD555
:100A50005056431B018051C37847E6940118E69431
:100A600000504880437846E6FE08E6FFAC06547F17
:100A70004C700B7840E664047004F526802D7840B5
:100A8000E664067026EF247F60122480701D785E75
:100A9000E664067005751B01F51C800C7857E6644A
:100AA000067005751B01F51CE4F526AF26EF33959E
:100AB000E04F700BFB7A00791B7D02FC121875AFBA
:100AC0002622C0E0C0F0C083C082C0D075D000C074
:100AD00000C001C002C003C004C005C006C00712A8
:100AE0001B308F21121B3B8F22121B468F23121BA0
:100AF000518F24E52130E340121BBF12163278518A
:100B0000E6FFC31354016401700618E66403601025
:100B1000EF131354016401700A7850E66402700305
:100B2000432201785FE6FFC3135401640170091882
:100B3000E664037003432302E52130E2031216B991
:100B4000E52130E103121BA1E52130E003121A5E1A
:100B5000E52230E103120F0BE52330E103120928EF
:100B6000E52230E003120844AF24121B25D007D041
:100B700006D005D004D003D002D001D000D0D0D010
:100B800082D083D0F0D0E0327526FF7844E660034F
:100B9000020C497842E6541F6003020C497849E68A
:100BA00018466003020C4918E618466003020C4917
:100BB0007840E66404704B7844E6FE08E6FF4E6039
:100BC000167863860308E6FA08E6F9900005120332
:100BD000F46F7001EE70727845E6783EF6786386C1
:100BE0000308E6FA08E6F99000051203F478456672
:100BF000700218E67050D2001218A87F0612173340
:100C000080447840E6640670407844E6FE08E6FFDB
:100C10004E60177863860308E6FA08E6F990000547
:100C20001203F4B50723E4B5061F7845E6783EF6CF
:100C30007845E61846700A7F0412173312000380C5
:100C400005C2001218A8E4F526AF26228F288B29AA
:100C50008A2A892BE528600B1460088000121BD3B8
:100C60007FFC22E528600A7840E6640660037FF78F
:100C700022E52875F007A4244BF9AF01EF2405F80D
:100C8000E6FD6401600AED64057FFE70027FFB22D1
:100C9000E5E6A2E1920153E6FDAA2AA92BA807A640
:100CA0002908A60208A601EF2403F8A62C08A62D01
:100CB000EF2405F87602A200E4335401FEEF240687
:100CC000F8E654FE4EF6E52814600B04702C7851BB
:100CD000E64404F68024D3E52D9440E52C940040AE
:100CE000047D408004AF2DAD077852860308E6FAF4
:100CF00008E6F9D2027F011212F230010343E60244
:100D00007F0022E4FEEEC3940C74809480500F7434
:100D1000CB2EF582E43400F583E4F00E80E7E4FEA8
:100D2000EEC39420748094805054EE131313541F18
:100D300075F003A4FFEE5407FDF87401088002C3A8
:100D400033D8FCFD748A2EF582E43400F583E02468
:100D5000FE60111460182402702174CD2FF582E416
:100D60003400801274CC2FF582E43400800874CBF8
:100D70002FF582E43400F583E04DF00E80A2E4FE0E
:100D8000EEFD7C00C3940C748094805024C3ED94D9
:100D900006748094805004AF068004EE2402FF7431
:100DA000CB2EF582E43400F583E0FD12127B0E8039
:100DB000CF228B3B8A3C893D53E6FD12002AE4FF9B
:100DC000EFC3942B748094805009743E2FF8E4F69E
:100DD0000F80EDAB3BAA3CA93D1204AE7860A603A0
:100DE00008A60208A601AB3BAA3CA93D900003124D
:100DF00004CE7863A60308A60208A601AB3BAA3C72
:100E0000A93D9000061204CE7866A60308A6020843
:100E1000A601AB3BAA3CA93D9000091203F4783F20
:100E2000F653A98F43D720759601759708E596204C
:100E3000E7FB75960B75970FE59620E7FB121B1ADB
:100E4000E5C9A2E67840500476038002760143E6C5
:100E500002759601759701E59620E7FB7F002275E4
:100E600026FF7849E618466003020F087842E654E8
:100E70001F24FE6003020F087845E618466003024F
:100E80000F087846E6FE08E6547FFF4E7011784062
:100E9000E6C39404748094804005E4F5268069C319
:100EA000EF9403EE940050607840E664067059F5C4
:100EB000267847E6547FFF121B257847E630E70B7C
:100EC000759611759740E59620E7FB7847E620E791
:100ED00018759694E59620E7FB5397DFE59620E793
:100EE000FB439780E59620E7FB7847E6247F600F79
:100EF00024807014785EE66403600D7601800978C2
:100F000057E6640260027601AF26227F01121B259C
:100F1000121AA75010759611E4F597E59620E7038D
:100F2000020FB280F67857E664026003020FB278CF
:100F300055E6FE08E6FFD39440EE940040047F405F
:100F400080008F257E00C37856E69FF618E69EF651
:100F500018EF26F618EE36F67858E6139200785514
:100F6000E6FE08E6FFD39400EE94004024D3EF940D
:100F700040EE940040047D4080047856E6FD7852AF
:100F8000860308E6FA08E6F9D2027F011212F2801F
:100F9000097858E654FEF6187601300015E525FB71
:100FA0007A007855E6F52D08E6F52EE4FD7F01126E
:100FB00014EF227851E6139200121B5C8F26C3783F
:100FC0004FE69F18E69400500E7850760108E644EC
:100FD00002F67527F2805A784B860308E6FA08E68F
:100FE000F9AD26E4FF1215E7AF267E00784DEF2617
:100FF000F618EE36F6C3784FE69FFF18E69EFEF62B
:1010000008EFF6E4F527EF4E701CE5266440601605
:10101000759611759748E59620E7FB78507601089C
:10102000E654FEF6800B759611759740E59620E71D
:10103000FB300015E526FB7A00784EE6F52D08E634
:10104000F52EAD27E4FF1214EF227526FF7849E64E
:10105000184660030210DB7842E6541F24FE707BC2
:101060007846E6FE08E6547FFF4E70117840E6C3EE
:101070009404748094804005E4F526805EC3EF9468
:1010800003EE940050557845E61846704E7840E6D9
:1010900064067047F5267847E6547FFF121B2578D3
:1010A00047E630E70B759611759710E59620E7FB3C
:1010B0007847E620E710759694E59620E7FB43977E
:1010C00020E59620E7FB7847E6247F600A248070BD
:1010D0000A785E7606800478577606AF2622121BC1
:1010E000D8787FE4F6D8FD758168021128020046A1
:1010F000E493A3F8E493A34003F68001F208DFF43D
:101100008029E493A3F85407240CC8C333C4540FB4
:101110004420C8834004F456800146F6DFE4800B87
:101120000102040810204080901A4BE47E01936075
:10113000BCA3FF543F30E509541FFEE493A36001B4
:101140000ECF54C025E060A840B8E493A3FAE4931E
:10115000A3F8E493A3C8C582C8CAC583CAF0A3C8CC
:10116000C582C8CAC583CADFE9DEE780BE8F2F8B80
:10117000308A318932E52F600C24FE60088000122D
:101180001BD37FFC22E52F600A7840E664066003EB
:101190007FF722E52F75F007A4244BF9AF01EF2468
:1011A00005F8E6FD6401600AED64057FFE70447F8A
:1011B000FB22E5E6A2E1920253E6FDAA31A932A89C
:1011C00007A63008A60208A601EF2403F8A63308F4
:1011D000A634EF2405F87603A201E4335401FEEFB0
:1011E0002406F8E654FE4EF654F7F630020343E6C2
:1011F000027F0022AE07E4FB121B25300213A80673
:101200007E007410088005C333CE33CED8F9FF803A
:1012100013AF067E007420A807088005C333CE33C1
:10122000CED8F9FFD3ED9FEC9E50034303803003EB
:1012300003430340300120430320300203430304EF
:10124000759611759740E59620E7FB7596128B977A
:10125000E59630E72580F9759614759780E5962018
:10126000E7FB7596158B97E59620E7FB20020B753B
:101270009612E4F597E59620E7FB22D2B1C2B0754D
:10128000AEFF8DC78F90E4F53AAF3AC3EF940A747E
:101290008094805004053A80F075A01DE4F53AAFC3
:1012A0003AC3EF940A748094805004053A80F05356
:1012B000A0F7E4F53AAF3AC3EF940A7480948050F3
:1012C00004053A80F043A008E4F53AAF3AC3EF943E
:1012D0000A748094805004053A80F075A00DE4F5FE
:1012E0003AAF3AC3EF940A748094805004053A8070
:1012F000F0228F2E8D2F8B308A318932E59620E7B0
:10130000FBE52E4420F596E5301460132403601AA3
:10131000146020147026AD32AF2F121A0F801DAC4E
:1013200031AD32AF2F1219E38012AD32AF2F121A46
:10133000238009AC31AD32AF2F1219CC300220D34B
:10134000E52E9400748094804015AF2E121B2575F5
:101350009691E59620E7FB439701E59620E7FB226F
:10136000E4F5AE75C7FFC2B1C2B08F9075A00CF5A1
:101370003AAF3AC3EF940A748094805004053A80DF
:10138000F053A0FBE4F53AAF3AC3EF940A748094AB
:10139000805004053A80F0AFC7E4F53AAE3AEEC3A8
:1013A000940A748094805004053A80F043A004E4C9
:1013B000F53AAE3AEEC3940A748094805004053A2C
:1013C00080F0D2B1C2B075AEFF227526FF7844E638
:1013D000FE08E6FFC39480EE940050547849E61866
:1013E00046704D7842E6541F70467847E6184670BE
:1013F0003F7840E66403700BEF4E601A7F041217CB
:101400003380137840E66404700F7845E618467020
:10141000057F03121733E4F526AF26EF3395E04F2F
:10142000700EF5967845E64480F597E59620E7FB43
:10143000AF26228F2BE4F52DEF6009C3940374804F
:1014400094804008121BD3752DFC8041E5E6A2E193
:10145000920153E6FDE52B75F007A4244BF9892C86
:10146000E52C2405F8E664016023E52B24FE600AE0
:1014700004700C7F011217D980057F0112180DE549
:101480002C2405F87601E52C2406F8E4F630010357
:1014900043E602AF2D22752642A9267A007B007D05
:1014A00008E4FF1215E7E5262402F8E6FC08E6FA50
:1014B000ECFFEAFEE5262402F8A60608A607E526C4
:1014C0002404F8E6FC08E6FAECFFEAFEE52624042C
:1014D000F8A60608A607E5262406F8E6FC08E6FABC
:1014E000ECFFEAFEE5262406F8A60608A607228DEC
:1014F0002A8A2B8B2CEF64027047900000E0640274
:10150000702C90008904F0E4FFEFC3940974809478
:1015100080501B74012FF582E43400F583E0FE74E3
:10152000D82FF582E43400F583EEF00F80DB7B01E9
:101530007A007900753300753410D2017F021211E0
:101540006DE4FEFF22E4FF7843E6B40C00504690C1
:101550001556F828287302157A02157D0215950292
:101560001580021595021583021586021595021540
:101570008902158C02158F0215920209FB020E5F7B
:1015800002104A0213CA020642021598020B880290
:10159000167A02176B7FFF227FFF7847E6184670A6
:1015A0004518E61846703F7849E6640118467036DB
:1015B0007842E6FEC4131313540164017028EE54FC
:1015C0001F70237840E6640470087BFF7A1C7990D2
:1015D000800C7840E66406700DFB7A00793E7D0150
:1015E000FC121875E4FF228F288D298B2A8A2B89FB
:1015F0002CD3E5299400748094804035E59620E74B
:10160000FBE52844E0F596E52A14601124036018F0
:1016100024FE701DAD2CAB28AF29021978AC2BAD80
:101620002CAB28AF2902191AAD2CAB28AF291219FF
:101630003B228E258F26121A37121AF5503B7F0156
:101640001218D14034E50860309000407401F0A3D6
:10165000E50DF0A3E50EF0A3E50FF0A3E510F0A370
:10166000E511F07B017A007940752C00752D06C2DA
:10167000007F01120C4CE4F508227846E6FE08E6ED
:101680007DFFC39401EE9400502C7849E664011864
:101690004670237845E61846701C7842E6648170EF
:1016A000157840E66406700E7BFF7A1C79907D0108
:1016B000FC121875E4FDAF05227850760178577654
:1016C00006785E760675960F75978FE59620E7FB90
:1016D000759601759701E59620E7FB75960B759752
:1016E0000FE59620E7FBE5C9A2E650047F038002E0
:1016F0007F01121733021BD78F298D2AAF2A7E0054
:10170000C3EF9405748094804028EF640570057FD2
:1017100001021433E52A640670187F181219F97B48
:10172000017A007900753300753410D2017F0212FE
:10173000116D228F277840E6F528C39405748094B4
:1017400080400CEF9405748094805003120003E5F0
:1017500027640570047841A6287840A627E5286507
:10176000276007AD27AF281216F8227FFF7847E6DB
:10177000FE7845E6FDEEC394017480948050237892
:1017800040E66406701C7849E618467015AE05EE12
:1017900070107842E6541F64017007C2001218A846
:1017A000E4FF22E4FFEFC3942074809480501B7404
:1017B000AA2FF582E43400F583E4F0748A2FF582D1
:1017C000E43400F583E4F00F80DBE49000D7F09080
:1017D00000CAF0F50B750C0122121B2575961175C8
:1017E0009708E59620E7FB759691E59620E7FBE5DF
:1017F0009720E3F3759611759708E59620E7FB753A
:101800009691E59620E7FBE59720E3F322121B254E
:10181000759614759710E59620E7FB759694E596F6
:1018200020E7FBE59720E4F3759614759710E5968D
:1018300020E7FB759694E59620E7FBE59720E4F317
:101840002285BF3A121B8F121B67121B71121B8558
:10185000121AC1121ACE121ADB121AE8121B7B12CC
:101860001BC4121A70121BCC121BC8121BA8121B0D
:1018700098853ABF227850E66401702B784BA60316
:1018800008A60208A60108A60408A605087602080C
:10189000F6ED543F70117849E66D700318E66C6000
:1018A000067851E64410F622300008785776017821
:1018B0005E7601D201D202C2037D407C007F01121C
:1018C00011F4C201D202C2037D407C007F010211EB
:1018D000F48F27C3EF9403748094804005121BD3C8
:1018E000D322E52775F007A4244BF9E92405F8E68F
:1018F0006401D37001C322AD07ED4480F596E596EF
:1019000020E7FBAF97EF7F00FEED144480F596E5EE
:101910009620E7FBAD97ED4207228D828C831FEF67
:10192000600BE59620E7FBE597F0A380F1E59620B4
:10193000E7FBEB4420F596E597F022A8051FEF6042
:101940000BE59620E7FBE597F20880F1E59620E7A6
:10195000FBEB4420F596E597F222D3E5189400744A
:10196000809480400CE51875F004A485F019F51AF0
:1019700022751900751A1822A8051FEF600AE5964E
:1019800020E7FBA6970880F2E59620E7FBEB4420D2
:10199000F596A69722E4FEEEC394107480948050CE
:1019A0000AAF06E4FD12127B0E80EC7D837F0602F7
:1019B000127BE4F5C8538E9FC39FFFE49EF5CB8F47
:1019C000CA74FFF5CDF5CCD2ADD2CA228D828C83FC
:1019D000AE071FEE600CE59620E7FBE493F597A3B6
:1019E00080EE228D828C83AE071FEE600BE5962081
:1019F000E7FBE0F597A380EF22EF600EC394067437
:101A0000809480500575180680028F1802195AA814
:101A100005AE071FEE600BE59620E7FBE6F597089D
:101A200080EF22A805AE071FEE600BE59620E7FBCE
:101A3000E2F5970880EF22D3E51A9400E5199400A7
:101A40004008E51A151A7002151922010A0001084A
:101A500000410089004100E100020B0001007840D4
:101A6000E6C394027480948040057F0512173322E8
:101A700075BC3875BA1F75BB0643E84043E8802241
:101A8000759691E59620E7FBE597A2E4227596917D
:101A9000E59620E7FBE597A2E222759691E5962070
:101AA000E7FBE597A2E122759691E59620E7FBE535
:101AB00097A2E522759694E59620E7FBE597A2E6C6
:101AC0002275F1FF75A4BF75804075D4FF2275F2B1
:101AD000FF75A5FFE4F59075D5FF2275F3FF75A698
:101AE000FF75A00C75D6FF2275F4FF75A7FF75B0C2
:101AF0000375DFFF22E51A4519700512195AD32222
:101B0000C322759691E59620E7FBE597132275961B
:101B100094E59620E7FBE59713227850760143D7AA
:101B20008043D7402275960E8F97E59620E7FB22DB
:101B3000759686E59620E7FBAF9722759682E59627
:101B400020E7FBAF9722759684E59620E7FBAF97D9
:101B50002275968EE59620E7FBAF9722759696E55F
:101B60009620E7FBAF9722E5D8544042D875DA219A
:101B700022E5D8544042D875DB212275F5FF75AEB9
:101B8000FFE4F5C722E5D8544042D875DE0822E4C8
:101B9000F5BF53D9BFF5D9227BFF7A1C7986020D98
:101BA000B27841E6FF021733E4F5E675A88022C259
:101BB000CF750A01327840E6FF227F170218F77FBF
:101BC0000D0218F775E2422275A9032275D1082289
:101BD000AF182280FED32222221201000200000050
:101BE00040474212000001010203010902290001DD
:101BF00001008032090400000203000000092111E5
:101C000001000122260007058103400001070501AC
:101C1000034000010600FF0901A10185019505753A
:101C20000826FF0015000901810285029509750843
:101C300026FF00150009019102C004030904011CDC
:101C40000362696B6572676C656E2E636F6D000170
:101C50002C03437573746F6D2055534220484944DB
:101C60002044657669636500011E03303030302DF5
:101C7000303030302D3030303100FF1C3AFF1C3E08
:101C8000FF1C4FFF1C68FF1BD9FF1BEBFF1C7A04D6
:021C9000000052
:00000001FF
