:020000040000FA
:10000000021455E5E6A2E1920053E6FD752901C30D
:10001000E5299403748094805009AF291216C9050C
:100020002980EC30000343E6022222021E45E4FF51
:10003000121DBB78557605759611759760E596206B
:10004000E7FB22020E48E4F53AF53BF53C121AAD07
:10005000E4F53DF53E053EE53E7002053DE53EB466
:10006000D0F3E53DB407EE121C02121C20E4F53675
:10007000C3E536942074809480501E742F2536F585
:1000800082E43400F583E4F0740F2536F582E4341D
:1000900000F583E4F0053680D7E4F537C3E53794FF
:1000A0000A74809480501EE53775F01EA4FFE53772
:1000B00025E024F5F582E43400F583E5F0F0A3EFC4
:1000C000F0053780D77F407E9C121C5BAFBF53E6A4
:1000D000FD8FBF900005E09000F4F0E06031E4F5A2
:1000E00036E536C3940474809480501E744F2536D0
:1000F000F582E43400F583E0FE74002536F582E4F1
:100100003400F583EEF0053680D7E4900005F090DA
:100110000111E090000EF0E06039900004E09000E2
:10012000F3F0E4F538E538C3940874809480501EE9
:1001300074062538F582E43400F583E0FE74092561
:1001400038F582E43401F583EEF0053880D7E49089
:100150000111F0AFBF43E6028FBF9000F4E06003EF
:1001600012178590000EE0600E9000F3E0FF7B0117
:100170007A017909120ACAE50E70030200CCE4F58F
:100180000E121E4B8F3BEF64067044AF3AFEC3EF76
:100190009419748094805004C2B5802BC3EF9432BC
:1001A000EE648094805004D2B5801CC3EF944BEE73
:1001B000648094805004C2B5800DC3EF9464EE64F3
:1001C0008094805002D2B5E53B653C6028801DC319
:1001D000E53A9432748094805004C2B58002D2B55E
:1001E000E53B653C600FE53C64067009853B3C12CD
:1001F0001C02121C20E53B640670030204A3E4F514
:1002000036C3E536942074809480400302029B74C8
:100210002F2536F582E43400F583E0703B1217DBBE
:100220007C007DA01204F98D391217DB7C007D3231
:100230001204F9E5397043ED2428FF742F2536F5B3
:1002400082E43400F583EFF0740F2536F582E43450
:1002500000F5837401F08022742F2536F582E43492
:1002600000F583E0C3940A74809480500D740F25C8
:1002700036F582E43400F583E4F0742F2536F582F8
:10028000E43400F583E0600E742F2536F582E43403
:1002900000F583E014F00536020201E4F536C3E50B
:1002A00036940474809480501174002536F582E4ED
:1002B0003400F583E4F0053680E4E4F536C3E53632
:1002C0009420748094805035740F2536F582E43480
:1002D00000F583E06023E536131313541F2400F563
:1002E00082E43400F583E0FFE5365407FEF874013C
:1002F000088002C333D8FC4FF0053680C012178542
:10030000E4F537C3E537940A74809480400302040F
:10031000A3E53725E024F5F582E43400F583E0FE1B
:10032000A3E04E7058F538C3E53894087480948083
:10033000504B1217DBEF540FFFE53775F008A4247C
:10034000A3F582E43400F583E5822538F582E435AF
:1003500083F583EFF0E53775F008A424A3F582E474
:100360003400F583E5822538F582E43583F583E0B2
:10037000C3940A7480948050B9053880AAE5372563
:10038000E024F5F582E43400F583A3E054037058CB
:10039000F538C3E538940874809480504B1217DB0D
:1003A000EF540FFFE53775F008A42453F582E434C9
:1003B00000F583E5822538F582E43583F583EFF097
:1003C000E53775F008A42453F582E43400F583E59D
:1003D000822538F582E43583F583E0C3940A74807E
:1003E000948050B9053880AAE4F538C3E5389408FC
:1003F00074809480506AE53875F018A42418FFE4DE
:1004000035F0FEE53725E024F5F582E43400F58388
:10041000E0FCA3E0C39FEC9EE53775F008400AA41A
:1004200024A3F582E434008008A42453F582E43444
:1004300000F583E5822538F582E43583F583E0FF16
:10044000EF2430FF74092538F582E43401F583EF99
:10045000F07B017A017909AF37120ACA0538808B1F
:10046000E53725E024F5F582E43400F583E475F002
:100470000112054EE53725E024F5F582E43400F558
:1004800083E0FEA3E0C3942CEE94014011E53725F0
:10049000E024F5F582E43400F583E4F0A3F00537B9
:1004A000020303053AE53A646460030200CCF53ABE
:1004B0000200CCBB010689828A83E0225002E72237
:1004C000BBFE02E32289828A83E49322BB010CE50E
:1004D0008229F582E5833AF583E0225006E92582F8
:1004E000F8E622BBFE06E92582F8E222E58229F53C
:1004F00082E5833AF583E49322BC000BBE0029EF2A
:100500008DF084FFADF022E4CCF875F008EF2FFFFA
:10051000EE33FEEC33FCEE9DEC984005FCEE9DFEC8
:100520000FD5F0E9E4CEFD22EDF8F5F0EE8420D20F
:100530001CFEADF075F008EF2FFFED33FD4007987E
:100540005006D5F0F222C398FD0FD5F0EA22C5F08F
:10055000F8A3E028F0C5F0F8E58215827002158353
:10056000E038F022BB0110E58229F582E5833AF5F7
:1005700083E0F5F0A3E0225009E92582F886F0082F
:10058000E622BBFE0AE92582F8E2F5F008E222E560
:10059000832AF583E993F5F0A3E99322BB01078948
:1005A000828A830205F55005E9F80205ECBBFE05D9
:1005B000E9F80205FE89828A83020607BB010DE580
:1005C0008229F582E5833AF5830205F55007E9258E
:1005D00082F80205ECBBFE07E92582F80205FEE57C
:1005E0008229F582E5833AF583020607E6FB08E6F1
:1005F000FA08E6F922E0FBA3E0FAA3E0F922E2FB25
:1006000008E2FA08E2F922E493FB740193FA740217
:1006100093F9228F267527FDA807E6FFC41354031C
:1006200060030206D4EFC413131354016401600382
:100630000206D4E6541F640160030206D4E804F8FD
:10064000E624FA600302076BE5262402F9E7642238
:100650007038E5262404F8E6FE08E6600302076B1E
:10066000EE600302076B7BFF7A1E79AAE52624065B
:10067000F8E6FE08E6FFC374449FE49E500A7C003F
:100680007D447E007F4480458043E5262402F9E7CF
:100690006421600302076BE5262404F8E6FE08E601
:1006A000600302076BEE600302076B7BFF7A1E7923
:1006B00093E5262406F8E6FE08E6FFC374099FE4E6
:1006C0009E500A7C007D097E007F0980008E2C8F61
:1006D0002D020761A826E6FFC413540364016003DA
:1006E00002076BEF541F6401600302076BE82405E7
:1006F000F9E719477075E804F8E624FE602E24F83F
:100700007069E5262402F8E6FE08E6705EE5262418
:1007100007F9E719477054A826E6FDC413131354CC
:100720000164016046EEFF121CA2803CE526240312
:10073000F9E719477035E5262407F9E764011947F9
:100740007029A826E6FFC413131354016401701B1B
:10075000121E668F097B007A007909752C00752DB1
:1007600001C200E4FF120FD2E4F527AF27228E2545
:100770008F26121CE0E5086003020830C3E50A94E6
:100780001074809480505FE50A20E02075A5FFD2A8
:10079000A1E4F580E50AC313FFF87401088002C3E1
:1007A00033D8FCF4F590C2A2D2A28036E4F5A5C2FB
:1007B000A175801CC2A2F527AF27C3EF940A7480ED
:1007C00094805004052780F0E590F4FFE50AC313F8
:1007D000249AF582E43401F583EFF0D2A2D2A17518
:1007E000A5FF050A804A75A5FFD2A1E4F5807590A2
:1007F000FFC2A2D2A2FFEFC3940874809480502D50
:1008000074922FF582E43401F583E0FE749A2FF59B
:1008100082E43401F583E0FD6E6003750801749293
:100820002FF582E43401F583EDF00F80C9E4F50A79
:10083000121D8B50677F01121B3D4060E508605C14
:100840009001527402F090019AE0900153F09001EF
:100850009BE0900154F090019CE0900155F09001D4
:100860009DE0900156F090019EE0900157F09001BC
:100870009FE0900158F09001A0E0900159F09001A4
:10088000A1E090015AF07B017A017952752C007534
:100890002D09C2007F01120FD2E4F508227856E636
:1008A0001392007853E6FE08E6FFC39440EE9400EE
:1008B00040047F4080008F26852627784FE6FF542E
:1008C0007F6401706FEFC413131354016401702629
:1008D00008860308E6FA08E6F9C2027D02E4FF1280
:1008E00015F27852740226F618E436F61526152607
:1008F000784FE6547FF6E4F528E526C313FFE52894
:10090000C39F504D7850860308E6FA08E6F9C20204
:100910007D01E4FF1215F27852740126F618E436D0
:10092000F67BFF7A1F794DC2027D01E4FF1215F2BA
:10093000052880C57850860308E6FA08E6F9C20261
:10094000AD26E4FF1215F27852E52626F618E436B5
:10095000F67856E654FBF6C37854E69527FF18E67A
:100960009400FEF608EFF64E70207856E6C4540167
:10097000701875961175970AE59620E7FB785576FD
:1009800001E4784FF67856F680187596117597023F
:10099000E59620E7FB7854E6184670067856E6544C
:1009A000EFF6300014E527FB7A007853E6F52D08C2
:1009B000E6F52EE4FDFF12128A22E4FDFC752AFF03
:1009C0007847E664806003020AC77849E6FE08E6D5
:1009D000F526EEFFE46003020AA5EF24FE602A1468
:1009E000604E24026003020AA5E5266003020AA500
:1009F0007865860308E6FA08E6F98B278A28F52940
:100A00001204B37C00FD020AA5E5266003020AA5D4
:100A10007868860308E6FA08E6F98B278A28F5291C
:100A2000900002120564FAE5F0FFEAFCEFFD807524
:100A3000786B860308E6FA08E6F975F003E526A464
:100A4000F58285F0831205BC8B278A288929E52643
:100A5000700BFC7D04784FE65480F68048784BE6B6
:100A6000FE08E6FF4E600AEF64097003EE6404704E
:100A700034E526C3784496502CAB27AA28A92990A0
:100A800000011204CC7C00FD1204B3547FFF784FA8
:100A9000E654804FFFF674012529F529E43528F541
:100AA00028EF4480F6ED4C601E784DE6FE08E6FF28
:100AB000D3ED9FEC9E4004AC06AD07AB27AA28A956
:100AC00029121AE1E4F52AAF2A2285BF4053E6FD38
:100AD0008540BFD2A2D2A1EFB40A004003020BC9E5
:100AE000900AE7F8282873020B05020B0A020B0F85
:100AF000020B14020B19020B1E020B23020B28021D
:100B00000B2D020B32754104802B75412480267514
:100B100041408021754148801C75415080177541C6
:100B2000588012754160800D75416880087541706C
:100B30008003754178E5414403F5801204B3F590D4
:100B4000C2A2D2A2E5414402F5809000011204CC79
:100B5000F590C2A2D2A2E5414401F58090000212B4
:100B600004CCF590C2A2D2A2854180900003120469
:100B7000CCF590C2A2D2A274042541F5414403F5FC
:100B8000809000041204CCF590C2A2D2A2E54144A8
:100B900002F5809000051204CCF590C2A2D2A2E525
:100BA000414401F5809000061204CCF590C2A2D217
:100BB000A28541809000071204CCF590C2A2D2A277
:100BC00085BF4043E6028540BF227525FDE4FF1244
:100BD0001DBB121D234005121D16501D759611E4F4
:100BE000F597E59620E7FB759611759780E59620B9
:100BF000E7FB78557601E408F6121D984003020CD5
:100C00009E7856E6FF131313540164017004EF023B
:100C10000C9B7855E664017073784FF612172C7FA1
:100C2000471206138F25EF3395E0FEBEFF12BFFD7E
:100C30000F7847E6FFC4135403700512182F8F2551
:100C4000E4FF121DBBAF25EF3395E04F7039784EAE
:100C5000E61846700D759611759748E59630E73E93
:100C600080F9759611759740E59620E7FB7847E681
:100C7000FFC4131313540170257855E66403601EF6
:100C800008E64408F6801712002E80127855E664B4
:100C900003700512132A80067856E64402F678554A
:100CA000E664027008121D30400312089D22C20043
:100CB0007F01121DBB121D4A5015759694E59620B2
:100CC000E7FB5397BFE59620E703020D8080F612FD
:100CD0001DA44003020D80121E508F257863E66428
:100CE00003600A08E64402F67526F9806DC378624F
:100CF000E6952518E69400500E7863760108E644E0
:100D000002F67526F28053785E860308E6FA08E656
:100D1000F9AD257F011218D17864E654FDF6AF25B0
:100D20007E00C37862E69FF618E69EF618EF26F678
:100D300018EE36F67862E618466006E525644060EF
:100D40000678637601D200E4F526759694E5962040
:100D5000E7FB5397FEE59620E7FB7864E6FF540136
:100D60006401701C300004EF54FEF6E525FB7A00A8
:100D70007861E6F52D08E6F52EAD267F0212128A7F
:100D8000227526FF784EE6640218466003020E457F
:100D9000784AE618466003020E457847E6FFC4131A
:100DA0001313540164016003020E457845E6C394B1
:100DB00004748094805003020E45E4F511F512EF9F
:100DC000541F14601814602324027065784CE618D0
:100DD00046705E121E6B50564311018051C3784C11
:100DE000E6940118E6940050488043784BE6FE08EC
:100DF000E6FFAC06547F4C700B7845E66404700443
:100E0000F526802D7845E664067026EF247F601273
:100E10002480701D7863E664067005751101F51273
:100E2000800C785CE664067005751101F512E4F536
:100E300026AF26EF3395E04F700BFB7A0079117DDA
:100E400002FC121AE1AF2622C0E0C0F0C083C082CB
:100E5000C0D075D000C000C001C002C003C004C033
:100E600005C006C007121DC68F21121DD18F221288
:100E70001DDC8F23121DE78F24E52130E340121E75
:100E80005512076E7856E6FFC313540164017006CD
:100E900018E664036010EF131354016401700A78BC
:100EA00055E6640270034322017864E6FFC31354DD
:100EB000016401700918E664037003432302E5210D
:100EC00030E20312195BE52130E103121E37E52100
:100ED00030E003121CF4E52230E1031211E2E523B5
:100EE00030E103120CAEE52230E003120BCAAF244E
:100EF000121DBBD007D006D005D004D003D002D03D
:100F000001D000D0D0D082D083D0F0D0E03275268E
:100F1000FF7849E66003020FCF7847E6541F60036D
:100F2000020FCF784EE618466003020FCF18E6187E
:100F3000466003020FCF7845E66404704B7849E6BB
:100F4000FE08E6FF4E60167868860308E6FA08E6B3
:100F5000F99000051204CC6F7001EE7072784AE6C9
:100F60007843F67868860308E6FA08E6F990000503
:100F70001204CC784A66700218E67050D200121B38
:100F8000147F061219D580447845E66406704078CF
:100F900049E6FE08E6FF4E60177868860308E6FA21
:100FA00008E6F99000051204CCB50723E4B5061F46
:100FB000784AE67843F6784AE61846700A7F0412C3
:100FC00019D51200038005C200121B14E4F526AFE8
:100FD00026228F288B298A2A892BE528600B14600A
:100FE000088000121E697FFC22E528600A7845E629
:100FF000640660037FF722E52875F007A42450F902
:10100000AF01EF2405F8E6FD6401600AED64057F99
:10101000FE70027FFB22E5E6A2E1920153E6FDAA03
:101020002AA92BA807A62908A60208A601EF2403CF
:10103000F8A62C08A62DEF2405F87602A200E433CA
:101040005401FEEF2406F8E654FE4EF6E52814603F
:101050000B04702C7856E64404F68024D3E52D94D6
:1010600040E52C940040047D408004AF2DAD07780E
:1010700057860308E6FA08E6F9D2027F011215F254
:1010800030010343E6027F00228B408A41894253AC
:10109000E6FD12002AE4FFEFC3942B748094805085
:1010A0000974432FF8E4F60F80EDAB40AA41A94242
:1010B00012059C7865A60308A60208A601AB40AA03
:1010C00041A9429000031205BC7868A60308A60255
:1010D00008A601AB40AA41A9429000061205BC78BF
:1010E0006BA60308A60208A601AB40AA41A942903C
:1010F00000091204CC7844F653A98F43D720759683
:1011000001759708E59620E7FB75960B75970FE537
:101110009620E7FB121DB0E5C9A2E678455004769B
:10112000038002760143E602759601759701E59604
:1011300020E7FB7F00227526FF784EE61846600305
:101140000211DF7847E6541F24FE60030211DF78A6
:101150004AE6184660030211DF784BE6FE08E654C3
:101160007FFF4E70117845E6C394047480948040EC
:1011700005E4F5268069C3EF9403EE94005060788F
:1011800045E664067059F526784CE6547FFF121D3B
:10119000BB784CE630E70B759611759740E59620C5
:1011A000E7FB784CE620E718759694E59620E7FB78
:1011B0005397DFE59620E7FB439780E59620E7FB12
:1011C000784CE6247F600F248070147863E6640313
:1011D000600D76018009785CE6640260027601AFFA
:1011E00026227F01121DBB121D3D5010759611E481
:1011F000F597E59620E70302128980F6785CE664AD
:10120000026003021289785AE6FE08E6FFD3944092
:10121000EE940040047F4080008F257E00C3785B01
:10122000E69FF618E69EF618EF26F618EE36F678E4
:101230005DE6139200785AE6FE08E6FFD39400EECE
:1012400094004024D3EF9440EE940040047D40800D
:1012500004785BE6FD7857860308E6FA08E6F9D2DB
:10126000027F011215F28009785DE654FEF61876C9
:1012700001300015E525FB7A00785AE6F52D08E6E1
:10128000F52EE4FD7F0112128A228D2A8A2B8B2CE7
:10129000EF64026003021326900112E0FF7E0064F7
:1012A00001703990011104F0900113E0900004F0F6
:1012B000E4F52FC3E52F940874809480505574147E
:1012C000252FF582E43401F583E0FD7406252FF522
:1012D00082E43400F583EDF0052F80D7EF64044EEF
:1012E000703190000504F0E4F52FC3E52F940474E9
:1012F000809480501E7413252FF582E43401F58309
:10130000E0FF744F252FF582E43400F583EFF005FC
:101310002F80D77B017A017912753400753510D290
:10132000017F021214E4E4FEFF227856E6139200D5
:10133000121DF28F26C37854E69F18E69400500ED3
:101340007855760108E64402F67527F2805A7850FF
:10135000860308E6FA08E6F9AD26E4FF1218D1AFD5
:10136000267E007852EF26F618EE36F6C37854E65D
:101370009FFF18E69EFEF608EFF6E4F527EF4E70A5
:101380001CE52664406016759611759748E5962011
:10139000E7FB7855760108E654FEF6800B7596114A
:1013A000759740E59620E7FB300015E526FB7A00AF
:1013B0007853E6F52D08E6F52EAD27E4FF12128AE4
:1013C000227526FF784EE6184660030214527847CD
:1013D000E6541F24FE707B784BE6FE08E6547FFF40
:1013E0004E70117845E6C39404748094804005E4FF
:1013F000F526805EC3EF9403EE94005055784AE6DC
:101400001846704E7845E664067047F526784CE637
:10141000547FFF121DBB784CE630E70B75961175B3
:101420009710E59620E7FB784CE620E71075969438
:10143000E59620E7FB439720E59620E7FB784CE60E
:10144000247F600A2480700A786376068004785CC2
:101450007606AF2622121E6E787FE4F6D8FD7581DF
:101460006D02149F020046E493A3F8E493A34003A3
:10147000F68001F208DFF48029E493A3F8540724EE
:101480000CC8C333C4540F4420C8834004F45680AE
:101490000146F6DFE4800B01020408102040809032
:1014A0001BC6E47E019360BCA3FF543F30E50954A2
:1014B0001FFEE493A360010ECF54C025E060A84056
:1014C000B8E493A3FAE493A3F8E493A3C8C582C84D
:1014D000CAC583CAF0A3C8C582C8CAC583CADFE922
:1014E000DEE780BE8F308B318A328933E530600C85
:1014F00024FE60088000121E697FFC22E530600A2D
:101500007845E6640660037FF722E53075F007A4AE
:101510002450F9AF01EF2405F8E6FD6401600AEDFF
:1015200064057FFE70447FFB22E5E6A2E192025350
:10153000E6FDAA32A933A807A63108A60208A6012B
:10154000EF2403F8A63408A635EF2405F87603A2A5
:1015500001E4335401FEEF2406F8E654FE4EF6543F
:10156000F7F630020343E6027F0022AE07E4FB12E7
:101570001DBB300213A8067E007410088005C3331B
:10158000CE33CED8F9FF8013AF067E007420A807B3
:10159000088005C333CE33CED8F9FFD3ED9FEC9E40
:1015A00050034303803003034303403001204303CF
:1015B00020300203430304759611759740E5962089
:1015C000E7FB7596128B97E59630E72580F97596BF
:1015D00014759780E59620E7FB7596158B97E59631
:1015E00020E7FB20020B759612E4F597E59620E7BD
:1015F000FB228F2E8D2F8B308A318932E59620E7A2
:10160000FBE52E4420F596E5301460132403601AA0
:10161000146020147026AD32AF2F121CB8801DACA0
:1016200031AD32AF2F121C8C8012AD32AF2F121C95
:10163000CC8009AC31AD32AF2F121C75300220D3F3
:10164000E52E9400748094804015AF2E121DBB755A
:101650009691E59620E7FB439701E59620E7FB226C
:101660007526FF7849E6FE08E6FFC39480EE9400F5
:101670005054784EE61846704D7847E6541F704631
:10168000784CE61846703F7845E66403700BEF4EE1
:10169000601A7F041219D580137845E66404700F30
:1016A000784AE6184670057F031219D5E4F526AF8F
:1016B00026EF3395E04F700EF596784AE64480F5B4
:1016C00097E59620E7FBAF26228F2BE4F52DEF6000
:1016D00009C39403748094804008121E69752DFC20
:1016E0008041E5E6A2E1920153E6FDE52B75F007A6
:1016F000A42450F9892CE52C2405F8E66401602324
:10170000E52B24FE600A04700C7F01121A45800547
:101710007F01121A79E52C2405F87601E52C2406C0
:10172000F8E4F630010343E602AF2D22752647A9FF
:10173000267A007B007D08E4FF1218D1E5262402FA
:10174000F8E6FC08E6FAECFFEAFEE5262402F8A635
:101750000608A607E5262404F8E6FC08E6FAECFFEE
:10176000EAFEE5262404F8A60608A607E5262406D0
:10177000F8E6FC08E6FAECFFEAFEE5262406F8A601
:101780000608A607227B017A007900AFBF53E6FD69
:101790008FBFD2A2D2A175800C1204B3F4F590C20F
:1017A000A2D2A27580109000011204CCF4F590C270
:1017B000A2D2A27580149000021204CCF4F590C25B
:1017C000A2D2A27580189000031204CCF4F590C246
:1017D000A2D2A2AFBF43E6028FBF22AE0FE51078C0
:1017E00002CEC313CE13D8F9FFE50F6EFCE5106FE0
:1017F000FDAE0FE5107803CEC313CE13D8F9FFEE7C
:101800006CFCEF6DFDAE0FE5107805CEC313CE1363
:10181000D8F9FFEF6DC43333335480FCE50FC313A5
:10182000FEE51013FFEE4CF50FEFF510AE0F22E4BE
:10183000FF7848E6B40C005046901840F82828730A
:1018400002186402186702187F02186A02187F02E1
:10185000186D02187002187F0218730218760218A9
:101860007902187C020D810211360213C102166042
:101870000209BA021882020F0E02191C021A0D7F09
:10188000FF227FFF784CE61846704518E618467030
:101890003F784EE66401184670367847E6FEC4137A
:1018A0001313540164017028EE541F70237845E629
:1018B000640470087BFF7A1F794D800C7845E664DC
:1018C00006700DFB7A0079437D01FC121AE1E4FFFA
:1018D000228F288D298B2A8A2B892CD3E5299400E5
:1018E000748094804035E59620E7FBE52844E0F5D8
:1018F00096E52A1460112403601824FE701DAD2C97
:10190000AB28AF29021C3EAC2BAD2CAB28AF290273
:101910001B86AD2CAB28AF29121BA722784BE6FE05
:1019200008E67DFFC39401EE9400502C784EE664E7
:101930000118467023784AE61846701C7847E6641A
:101940008170157845E66406700E7BFF7A1F794D2D
:101950007D01FC121AE1E4FDAF052278557601788D
:101960005C76067863760675960F75978FE59620F8
:10197000E7FB759601759701E59620E7FB75960BD9
:1019800075970FE59620E7FBE5C9A2E650047F03B3
:1019900080027F011219D5021E6D8F298D2AAF2A70
:1019A0007E00C3EF9405748094804028EF64057036
:1019B000057F010216C9E52A640670187F18121CFB
:1019C000A27B017A017912753400753510D2017F3E
:1019D000021214E4228F277845E6F528C394057493
:1019E000809480400CEF9405748094805003120022
:1019F00003E527640570047846A6287845A627E500
:101A00002865276007AD27AF2812199A227FFF7833
:101A10004CE6FE784AE6FDEEC39401748094805053
:101A2000237845E66406701C784EE618467015AEBD
:101A300005EE70107847E6541F64017007C200126B
:101A40001B14E4FF22121DBB759611759708E596CD
:101A500020E7FB759691E59620E7FBE59720E3F3F9
:101A6000759611759708E59620E7FB759691E596B2
:101A700020E7FBE59720E3F322121DBB7596147552
:101A80009710E59620E7FB759694E59620E7FBE531
:101A90009720E4F3759614759710E59620E7FB758B
:101AA0009694E59620E7FBE59720E4F32285BF3F77
:101AB000121E25121DFD121E07121E1B121D57128B
:101AC0001D64121D71121D7E121E11121E5A121D4E
:101AD00006121E62121E5E121E3E121E2E853FBF91
:101AE000227855E66401702B7850A60308A60208F8
:101AF000A60108A60408A60508760208F6ED543FDC
:101B00007011784EE66D700318E66C60067856E644
:101B10004410F622300008785C760178637601D2B2
:101B200001D202C2037D407C007F0112156BC2010D
:101B3000D202C2037D407C007F0102156B8F28C357
:101B4000EF9403748094804005121E69D322E52827
:101B500075F007A42450F9E92405F8E66401D37070
:101B600001C322AD07ED4480F596E59620E7FBAF73
:101B700097EF7F00FEED144480F596E59620E7FB95
:101B8000AD97ED4207228D828C831FEF600BE596A7
:101B900020E7FBE597F0A380F1E59620E7FBEB4417
:101BA00020F596E597F022A8051FEF600BE596203B
:101BB000E7FBE597F20880F1E59620E7FBEB442090
:101BC000F596E597F222010800010A00010E004196
:101BD000000500410111004100F40041000E000227
:101BE0000F000100D3E50B940074809480400CE555
:101BF0000B75F004A485F00CF50D22750C00750D25
:101C00001822E4FFEFC39404748094805009743F59
:101C10002FF8E4F60F80ED7B007A00793F02178BF6
:101C2000E4F53FC3E53F940A74809480500F7BFF36
:101C30007A1F7944AF3F120ACA053F80E622A80501
:101C40001FEF600AE59620E7FBA6970880F2E5966D
:101C500020E7FBEB4420F596A69722E4F5C8538EC7
:101C60009FC39FFFE49EF5CB8FCA74FFF5CDF5CCE3
:101C7000D2ADD2CA228D828C83AE071FEE600CE5F6
:101C80009620E7FBE493F597A380EE228D828C8368
:101C9000AE071FEE600BE59620E7FBE0F597A3800B
:101CA000EF22EF600EC39406748094805005750B8C
:101CB0000680028F0B021BE4A805AE071FEE600B27
:101CC000E59620E7FBE6F5970880EF22A805AE072A
:101CD0001FEE600BE59620E7FBE2F5970880EF2208
:101CE000D3E50D9400E50C94004008E50D150D704A
:101CF00002150C227845E6C3940274809480400556
:101D00007F051219D52275BC3875BA1F75BB0643FD
:101D1000E84043E88022759691E59620E7FBE59739
:101D2000A2E422759691E59620E7FBE597A2E222D0
:101D3000759691E59620E7FBE597A2E122759691CD
:101D4000E59620E7FBE597A2E522759694E59620B7
:101D5000E7FBE597A2E62275F1FF75A4FFE4F580A5
:101D600075D4FF2275F2FF75A5FFE4F59075D5FFD8
:101D70002275F3FF75A6FF75A00675D6FF2275F4D0
:101D8000FFE4F5A775B0FF75DFFF22E50D450C7088
:101D900005121BE4D322C322759691E59620E7FB3A
:101DA000E5971322759694E59620E7FBE5971322B5
:101DB0007855760143D78043D7402275960E8F978A
:101DC000E59620E7FB22759686E59620E7FBAF9720
:101DD00022759682E59620E7FBAF9722759684E5FB
:101DE0009620E7FBAF972275968EE59620E7FBAF2E
:101DF0009722759696E59620E7FBAF9722E5D85493
:101E00004042D875DA2122E5D8544042D875DB210A
:101E10002275F5FFE4F5AE75C7FF22E5D8544042C0
:101E2000D875DE0822E4F5BF53D9BFF5D9227BFF70
:101E30007A1F793A0210897846E6FF0219D5E4F54F
:101E4000E675A88022C2CF750E01327845E6FF22E2
:101E50007F17021B637F0D021B6375E2422275A987
:101E6000032275D10822AF0B2280FED32222221238
:101E7000010002000000404742050000010102038A
:101E80000109022900010100803209040000020357
:101E9000000000092111010001224400070581030F
:101EA000400001070501034000010600FF0901A1F0
:101EB0000185019509750826FF00150009019102A9
:101EC00085029508750826FF001500090181028525
:101ED000039510750826FF0015000901810285048D
:101EE0009504750826FF00150009019102C004033E
:101EF0000904011C0362696B6572676C656E2E6371
:101F00006F6D00012C03437573746F6D2055534240
:101F1000204849442044657669636500011E03300A
:101F20003030302D303030302D3030303100FF1E29
:101F3000EEFF1EF2FF1F03FF1F1CFF1E6FFF1E811F
:0F1F4000FF1F2E04202020202020202000000042
:00000001FF
