:020000040000FA
:1000000002138AE5E6A2E1920053E6FD752901C3D9
:10001000E5299403748094805009AF291216C9050C
:100020002980EC30000343E6022222021DDBE4FFBC
:10003000121D47784F7605759611759760E59620E5
:10004000E7FB22020D8C8F298D2AAF2A7E00C3EF99
:100050009405748094804028EF640570057F010248
:1000600016C9E52A640670187F18121C0F7B017AE6
:10007000007900753300753410D2017F0212141913
:100080002280FE021872E4F535F536F5371219E4D0
:100090007F807E3E121BC8E5807F0030E5027F0135
:1000A000EF7F0060027F078F0DE5807F0030E40264
:1000B0007F01EF7F0060027F078F0FE5C77F003071
:1000C000E2027F01EF7F0060027F078F0EE5C77FAE
:1000D0000030E3027F01EF7F0060027F078F11E5B0
:1000E000A07F0030E0027F01EF7F0060027F078F7A
:1000F00010E5A07F0030E1027F01EF7F0060027F0A
:10010000078F13E5B07F0030E4027F01EF7F0060CE
:10011000027F078F12E5B07F0030E5027F01EF7F9D
:100120000060027F078F15E5A07F0030E4027F01A9
:10013000EF7F0060027F078F14E5A07F0030E502AB
:100140007F01EF7F0060027F078F16E4F538C3E57B
:1001500038940874809480501174822538F582E4B4
:100160003400F583E4F0053880E4D2A3D2A2E49011
:1001700000ADF090008AF0900080F090008DF0903B
:10018000008B7480F0E4A3F0F538C3E53894127462
:100190008094805017E53825E024AEF582E43400E1
:1001A000F5837404F0A3E4F0053880DEE4F538C389
:1001B000E5389419748094805011748E2538F58236
:1001C000E43400F583E4F0053880E4E50A60FCE4FB
:1001D000F50A121DE18F36EF64067044AF35FEC399
:1001E000EF9419748094805004C286802BC3EF94DE
:1001F00032EE648094805004D286801CC3EF944B0E
:10020000EE648094805004C286800DC3EF9464EE47
:10021000648094805002D286E53665376022801D66
:10022000C3E5359432748094805004C2868002D233
:1002300086E53665376009E537640670038536372D
:100240000535E53564647002F535E50D25E0FFE51B
:10025000807E0030E5027E01EF4E5407F50DE50F7C
:1002600025E0FFE5807E0030E4027E01EF4E54077A
:10027000F50FE50E25E0FFE5C77E0030E2027E01C6
:10028000EF4E5407F50EE51125E0FFE5C77E00307F
:10029000E3027E01EF4E5407F511E51025E0FFE57E
:1002A000A07E0030E0027E01EF4E5407F510E5130A
:1002B00025E0FFE5A07E0030E1027E01EF4E54070D
:1002C000F513E51225E0FFE5B07E0030E4027E0183
:1002D000EF4E5407F512E51525E0FFE5B07E00303E
:1002E000E5027E01EF4E5407F515E51425E0FFE524
:1002F000A07E0030E4027E01EF4E5407F514E516AF
:1003000025E0FFE5A07E0030E5027E01EF4E5407B8
:10031000F516E4F538C3E5389406748094805011DE
:1003200074D22538F582E43400F583E4F005388092
:10033000E49000D2E0FEC006E5807D0130E3027D5E
:1003400000E4FF1215FED0E04F9000D2F0E0FEC0B6
:1003500006E5C77D0130E1027D007F011215FED068
:10036000E04F9000D2F0E0FEC006E5907D0130E75E
:10037000027D007F021215FED0E04F9000D2F0E027
:10038000FEC006E5B07D0130E6027D007F03121558
:10039000FED0E04F9000D2F0E0FEC006E5A07D0167
:1003A00030E6027D007F041215FED0E04F9000D2AF
:1003B000F0E0FEC006E5B07D0130E7027D007F057C
:1003C0001215FED0E04F9000D2F0E0FEC006E5C767
:1003D0007D0130E0027D007F061215FED0E04F90D7
:1003E00000D2F0AD0FAF0D121B059000D3EFF0ADB2
:1003F00011AF0E121B059000D4EFF0AD13AF101229
:100400001B059000D5EFF0AD15AF12121B05900043
:10041000D6EFF0AD16AF14121B059000D7EFF09099
:1004200000D4E0FE9000D3E04EFE9000D5E04EFEFA
:10043000A3E04E4FFF9000D2E0FE65097D00600210
:100440007D01ED4F9000D8F08E096040AFBF53E6BC
:10045000FD8FBF9000817401F0E4F538E538C39456
:100460000674809480501E74D22538F582E43400DE
:10047000F583E0FE74A72538F582E43400F583EEB9
:10048000F0053880D7AFBF43E6028FBF9000D3E0BE
:10049000FF30E0089000ADE004F0800AEF30E106A4
:1004A0009000ADE014F09000D4E0FF30E008900040
:1004B0008AE004F0800AEF30E10690008AE014F050
:1004C0009000D5E0FF30E008900080E004F0800A62
:1004D000EF30E106900080E014F09000D6E0FF30AD
:1004E000E01290008DE0C39418748094805019E05D
:1004F00004F08014EF30E11090008DE0D39400748C
:100500008094804003E014F09000D7E0FF30E012C8
:1005100090008BE0D3942C748094804019E014F008
:100520008014EF30E11090008BE0C394D474809479
:10053000805003E004F090008CE0FD7C006003023A
:1005400006629000BCE0B40442A3E0B4003D900019
:10055000ADE0FF3395E0FED3EF9400EE648094802D
:10056000400FE014F09000BC7406F0A374A0F0807B
:1005700023C3EE64809480501B9000ADE004F090A3
:1005800000BC7401F0A37460F080099000BC740496
:10059000F0A3E4F09000B8E0B40442A3E0B4003D5E
:1005A00090008AE0FF3395E0FED3EF9400EE648084
:1005B0009480400FE014F09000B87406F0A374A08B
:1005C000F08023C3EE64809480501B90008AE00486
:1005D000F09000B87401F0A37460F080099000B846
:1005E0007404F0A3E4F09000BAE0B40442A3E0B4D1
:1005F000003D900080E0FF3395E0FED3EF9400EEE5
:1006000064809480400FE014F09000BA7406F0A368
:1006100074A0F08023C3EE64809480501B9000800F
:10062000E004F09000BA7401F0A37460F0800990C7
:1006300000BA7404F0A3E4F090008DE0901EB6932D
:1006400075F008A4FF9000B0E5F0F0A3EFF0900083
:100650008BE075F008A4FF9000B2E5F0F0A3EFF096
:100660008018ED64014C70051212F9800D90008C19
:10067000E064027005F50843D20290008CE004F0BB
:10068000C394037480948050030201CBE4F0020110
:10069000CB8F267527FDA807E6FFC413540360031C
:1006A000020752EFC41313135401640160030207DD
:1006B00052E6541F64016003020752E804F8E6247E
:1006C000FA60030207E9E5262402F9E7642270389C
:1006D000E5262404F8E6FE08E660030207E9EE607A
:1006E000030207E97BFF7A1E793AE5262406F8E63D
:1006F000FE08E6FFC374269FE49E500A7C007D2618
:100700007E007F2680458043E5262402F9E76421A8
:1007100060030207E9E5262404F8E6FE08E6600324
:100720000207E9EE60030207E97BFF7A1E7923E501
:10073000262406F8E6FE08E6FFC374099FE49E50EF
:100740000A7C007D097E007F0980008E2C8F2D029F
:1007500007DFA826E6FFC413540364016003020701
:10076000E9EF541F640160030207E9E82405F9E793
:1007700019477075E804F8E624FE602E24F87069C5
:10078000E5262402F8E6FE08E6705EE5262407F971
:10079000E719477054A826E6FDC4131313540164E7
:1007A000016046EEFF121C0F803CE5262403F9E7AA
:1007B00019477035E5262407F9E7640119477029C0
:1007C000A826E6FFC413131354016401701B121D05
:1007D000F88F1C7B007A00791C752C00752D01C2E6
:1007E00000E4FF120F16E4F527AF27227850E61336
:1007F0009200784DE6FE08E6FFC39440EE94004078
:10080000047F4080008F268526277849E6FF547FA5
:100810006401706FEFC41313135401640170260850
:10082000860308E6FA08E6F9C2027D02E4FF121523
:1008300027784C740226F618E436F6152615267825
:1008400049E6547FF6E4F528E526C313FFE528C3FF
:100850009F504D784A860308E6FA08E6F9C2027D01
:1008600001E4FF121527784C740126F618E436F6D9
:100870007BFF7A1E79CFC2027D01E4FF12152705A6
:100880002880C5784A860308E6FA08E6F9C202AD70
:1008900026E4FF121527784CE52626F618E436F6EE
:1008A0007850E654FBF6C3784EE69527FF18E69499
:1008B00000FEF608EFF64E70207850E6C454017042
:1008C0001875961175970AE59620E7FB784F760123
:1008D000E47849F67850F68018759611759702E518
:1008E0009620E7FB784EE6184670067850E654EFFF
:1008F000F6300014E527FB7A00784DE6F52D08E682
:10090000F52EE4FDFF1218B622E4FDFC752AFF78EF
:1009100041E664806003020A167843E6FE08E6F5C5
:1009200026EEFFE460030209F4EF24FE602A14605F
:100930004E240260030209F4E52660030209F478FC
:100940005F860308E6FA08E6F98B278A28F529125C
:100950000A197C00FD0209F4E52660030209F47817
:1009600062860308E6FA08E6F98B278A28F52990BB
:100970000002120A5FFAE5F0FFEAFCEFFD807578ED
:1009800065860308E6FA08E6F975F003E526A4F59E
:100990008285F083120AB78B278A288929E5267079
:1009A0000BFC7D047849E65480F680487845E6FEE5
:1009B00008E6FF4E600AEF64097003EE64047034C9
:1009C000E526C3783E96502CAB27AA28A92990008B
:1009D00001120A327C00FD120A19547FFF7849E6A1
:1009E00054804FFFF674012529F529E43528F528B0
:1009F000EF4480F6ED4C601E7847E6FE08E6FFD334
:100A0000ED9FEC9E4004AC06AD07AB27AA28A929B0
:100A1000121A83E4F52AAF2A22BB010689828A834F
:100A2000E0225002E722BBFE02E32289828A83E4AD
:100A30009322BB010CE58229F582E5833AF583E038
:100A4000225006E92582F8E622BBFE06E92582F857
:100A5000E222E58229F582E5833AF583E49322BB1D
:100A60000110E58229F582E5833AF583E0F5F0A3EC
:100A7000E0225009E92582F886F008E622BBFE0A4A
:100A8000E92582F8E2F5F008E222E5832AF583E918
:100A900093F5F0A3E99322BB010789828A83020AB6
:100AA000F05005E9F8020AE7BBFE05E9F8020AF989
:100AB00089828A83020B02BB010DE58229F582E55A
:100AC000833AF583020AF05007E92582F8020AE723
:100AD000BBFE07E92582F8020AF9E58229F582E5DD
:100AE000833AF583020B02E6FB08E6FA08E6F922F0
:100AF000E0FBA3E0FAA3E0F922E2FB08E2FA08E255
:100B0000F922E493FB740193FA740293F922752598
:100B1000FDE4FF121D47121CAF4005121CA2501D20
:100B2000759611E4F597E59620E7FB759611759794
:100B300080E59620E7FB784F7601E408F6121D2445
:100B40004003020BE27850E6FF13131354016401D3
:100B50007004EF020BDF784FE6640170737849F69A
:100B600012172C7F411206918F25EF3395E0FEBEC0
:100B7000FF12BFFD0F7841E6FFC413540370051246
:100B800017858F25E4FF121D47AF25EF3395E04F02
:100B900070397848E61846700D759611759748E5D6
:100BA0009630E73E80F9759611759740E59620E7F7
:100BB000FB7841E6FFC413131354017025784FE608
:100BC0006403601E08E64408F6801712002E8012A7
:100BD000784FE6640370051211CE80067850E64423
:100BE00002F6784FE664027008121CBC400312073C
:100BF000EC22C2007F01121D47121CD650157596BB
:100C000094E59620E7FB5397BFE59620E703020C97
:100C1000C480F6121D304003020CC4121DE68F255D
:100C2000785DE66403600A08E64402F67526F980FA
:100C30006DC3785CE6952518E69400500E785D76D5
:100C40000108E64402F67526F280537858860308B8
:100C5000E6FA08E6F9AD257F01121827785EE6541A
:100C6000FDF6AF257E00C3785CE69FF618E69EF69B
:100C700018EF26F618EE36F6785CE618466006E5BC
:100C80002564406006785D7601D200E4F52675960D
:100C900094E59620E7FB5397FEE59620E7FB785E08
:100CA000E6FF54016401701C300004EF54FEF6E5C9
:100CB00025FB7A00785BE6F52D08E6F52EAD267F5C
:100CC000021218B6227526FF7848E66402184660BC
:100CD00003020D897844E618466003020D897841C5
:100CE000E6FFC4131313540164016003020D8978F5
:100CF0003FE6C39404748094805003020D89E4F5A8
:100D00001AF51BEF541F1460181460232402706539
:100D10007846E61846705E121DFB5056431A018055
:100D200051C37846E6940118E69400504880437811
:100D300045E6FE08E6FFAC06547F4C700B783FE6B4
:100D400064047004F526802D783FE664067026EF73
:100D5000247F60122480701D785DE664067005753E
:100D60001A01F51B800C7856E664067005751A01A9
:100D7000F51BE4F526AF26EF3395E04F700BFB7AB9
:100D800000791A7D02FC121A83AF2622C0E0C0F05F
:100D9000C083C082C0D075D000C000C001C002C0F6
:100DA00003C004C005C006C007121D528F21121DCA
:100DB0005D8F22121D688F23121D738F24E5213051
:100DC000E340121DEB1216657850E6FFC313540181
:100DD0006401700618E664036010EF131354016495
:100DE00001700A784FE664027003432201785EE6E0
:100DF000FFC31354016401700918E66403700343D0
:100E00002302E52130E203121935E52130E1031216
:100E10001DCDE52130E003121C61E52230E1031213
:100E20001126E52330E103120BF2E52230E0031234
:100E30000B0EAF24121D47D007D006D005D004D02A
:100E400003D002D001D000D0D0D082D083D0F0D057
:100E5000E0327526FF7843E66003020F137841E61F
:100E6000541F6003020F137848E618466003020F10
:100E70001318E618466003020F13783FE664047007
:100E80004B7843E6FE08E6FF4E601678628603085C
:100E9000E6FA08E6F9900005120A326F7001EE706A
:100EA000727844E6783DF67862860308E6FA08E64A
:100EB000F9900005120A32784466700218E6705004
:100EC000D200121AB67F061219748044783FE66485
:100ED0000670407843E6FE08E6FF4E6017786286AB
:100EE0000308E6FA08E6F9900005120A32B507236E
:100EF000E4B5061F7844E6783DF67844E618467077
:100F00000A7F041219741200038005C200121AB677
:100F1000E4F526AF26228F288B298A2A892BE528FB
:100F2000600B14600880001200817FFC22E52860BD
:100F30000A783FE6640660037FF722E52875F0072C
:100F4000A4244AF9AF01EF2405F8E6FD6401600A24
:100F5000ED64057FFE70027FFB22E5E6A2E19201CF
:100F600053E6FDAA2AA92BA807A62908A60208A6C7
:100F700001EF2403F8A62C08A62DEF2405F876022D
:100F8000A200E4335401FEEF2406F8E654FE4EF6C8
:100F9000E52814600B04702C7850E64404F6802495
:100FA000D3E52D9440E52C940040047D408004AFAF
:100FB0002DAD077851860308E6FA08E6F9D2027FDC
:100FC0000112152730010343E6027F00228B3A8A83
:100FD0003B893C53E6FD12002AE4FFEFC3942B74D7
:100FE0008094805009743D2FF8E4F60F80EDAB3A01
:100FF000AA3BA93C120A97785FA60308A60208A696
:1010000001AB3AAA3BA93C900003120AB77862A64A
:101010000308A60208A601AB3AAA3BA93C90000629
:10102000120AB77865A60308A60208A601AB3AAA79
:101030003BA93C900009120A32783EF653A98F432F
:10104000D720759601759708E59620E7FB75960BF6
:1010500075970FE59620E7FB121D3CE5C9A2E678DF
:101060003F500476038002760143E60275960175CF
:101070009701E59620E7FB7F00227526FF7848E67A
:10108000184660030211237841E6541F24FE6003D2
:101090000211237844E6184660030211237845E6DE
:1010A000FE08E6547FFF4E7011783FE6C394047447
:1010B0008094804005E4F5268069C3EF9403EE94A4
:1010C000005060783FE664067059F5267846E6548D
:1010D0007FFF121D477846E630E70B75961175972E
:1010E00040E59620E7FB7846E620E718759694E5FC
:1010F0009620E7FB5397DFE59620E7FB439780E5D3
:101100009620E7FB7846E6247F600F2480701478F1
:101110005DE66403600D760180097856E66402603E
:10112000027601AF26227F01121D47121CC9501002
:10113000759611E4F597E59620E7030211CD80F648
:101140007856E6640260030211CD7854E6FE08E6A4
:10115000FFD39440EE940040047F4080008F257EB2
:1011600000C37855E69FF618E69EF618EF26F618A7
:10117000EE36F67857E61392007854E6FE08E6FF5E
:10118000D39400EE94004024D3EF9440EE940040BA
:10119000047D4080047855E6FD7851860308E6FA20
:1011A00008E6F9D2027F0112152780097857E65424
:1011B000FEF6187601300015E525FB7A007854E636
:1011C000F52D08E6F52EE4FD7F011218B6227850C1
:1011D000E6139200121D7E8F26C3784EE69F18E616
:1011E0009400500E784F760108E64402F67527F217
:1011F000805A784A860308E6FA08E6F9AD26E4FF45
:10120000121827AF267E00784CEF26F618EE36F639
:10121000C3784EE69FFF18E69EFEF608EFF6E4F56B
:1012200027EF4E701CE52664406016759611759781
:1012300048E59620E7FB784F760108E654FEF680F5
:101240000B759611759740E59620E7FB300015E584
:1012500026FB7A00784DE6F52D08E6F52EAD27E45D
:10126000FF1218B6227526FF7848E618466003027A
:1012700012F67841E6541F24FE707B7845E6FE089E
:10128000E6547FFF4E7011783FE6C3940474809457
:10129000804005E4F526805EC3EF9403EE94005091
:1012A000557844E61846704E783FE664067047F578
:1012B000267846E6547FFF121D477846E630E70B56
:1012C000759611759710E59620E7FB7846E620E7BE
:1012D00010759694E59620E7FB439720E59620E766
:1012E000FB7846E6247F600A2480700A785D7606E3
:1012F000800478567606AF2622E4FDEDC394197477
:10130000809480500F748E2DF582E43400F583E4D0
:10131000F00D80E790008E740FF0E49000A5F0A32C
:10132000F0F53AF9753901FCFDEDC394B074809481
:101330008050567E007401A801088005C333CE3367
:10134000CED8F9FFE53A25E024AEF582E43400F585
:1013500083E05EFEA3E05F4E601A748E2539F5824D
:10136000E43400F583E0FFA8047401088002C3336D
:10137000D8FC4FF00C09EC64087003FC0539E964F3
:101380000B7003F9053A0D80A022121DFE787FE450
:10139000F6D8FD7581670213D4020086E493A3F8A2
:1013A000E493A34003F68001F208DFF48029E4937C
:1013B000A3F85407240CC8C333C4540F4420C88373
:1013C0004004F456800146F6DFE4800B0102040875
:1013D00010204080901C93E47E019360BCA3FF54D6
:1013E0003F30E509541FFEE493A360010ECF54C0C3
:1013F00025E060A840B8E493A3FAE493A3F8E4934B
:10140000A3C8C582C8CAC583CAF0A3C8C582C8CA52
:10141000C583CADFE9DEE780BE8F2F8B308A318932
:1014200032E52F600C24FE600880001200817FFCF2
:1014300022E52F600A783FE6640660037FF722E525
:101440002F75F007A4244AF9AF01EF2405F8E6FD53
:101450006401600AED64057FFE70447FFB22E5E6CF
:10146000A2E1920253E6FDAA31A932A807A63008EC
:10147000A60208A601EF2403F8A63308A634EF2439
:1014800005F87603A201E4335401FEEF2406F8E6E2
:1014900054FE4EF654F7F630020343E6027F002274
:1014A000AE07E4FB121D47300213A8067E0074103D
:1014B000088005C333CE33CED8F9FF8013AF067E44
:1014C000007420A807088005C333CE33CED8F9FFB7
:1014D000D3ED9FEC9E50034303803003034303404E
:1014E0003001204303203002034303047596117535
:1014F0009740E59620E7FB7596128B97E59630E7C7
:101500002580F9759614759780E59620E7FB75960A
:10151000158B97E59620E7FB20020B759612E4F5F4
:1015200097E59620E7FB228F2E8D2F8B308A31890D
:1015300032E59620E7FBE52E4420F596E530146071
:10154000132403601A146020147026AD32AF2F12DA
:101550001C25801DAC31AD32AF2F121BF98012ADAE
:1015600032AF2F121C398009AC31AD32AF2F121BB4
:10157000E2300220D3E52E9400748094804015AFB1
:101580002E121D47759691E59620E7FB439701E5DE
:101590009620E7FB227526FF7843E6FE08E6FFC3A8
:1015A0009480EE940050547848E61846704D784187
:1015B000E6541F70467846E61846703F783FE6646A
:1015C00003700BEF4E601A7F041219748013783F7A
:1015D000E66404700F7844E6184670057F0312191C
:1015E00074E4F526AF26EF3395E04F700EF596784C
:1015F00044E64480F597E59620E7FBAF2622748207
:101600002FF582E43400F583E0FE14601514601DAC
:101610001460252403702AED7C0060027C01AE0476
:10162000801FED7C0060027C02AE048014ED7C0320
:1016300060027C02AE048009ED7D0060027D02AE96
:101640000574822FF582E43400F583EEF030E11268
:101650007E007401A807088005C333CE33CED8F9C5
:10166000FF227F00228E258F26121C4D121D17503F
:10167000577F01121ADF4050900081E0604AE4F089
:1016800090004004F09000A7E0900041F09000A886
:10169000E0900042F09000A9E0900043F09000AA92
:1016A000E0900044F09000ABE0900045F09000AC7A
:1016B000E0900046F07B017A007940752C00752D92
:1016C00007C2007F01120F16228F2BE4F52DEF6069
:1016D00009C39403748094804008120081752DFC26
:1016E0008041E5E6A2E1920153E6FDE52B75F007A6
:1016F000A4244AF9892CE52C2405F8E6640160232A
:10170000E52B24FE600A04700C7F01121A1B800571
:101710007F01121A4FE52C2405F87601E52C2406EA
:10172000F8E4F630010343E602AF2D22752641A905
:10173000267A007B007D08E4FF121827E5262402A4
:10174000F8E6FC08E6FAECFFEAFEE5262402F8A635
:101750000608A607E5262404F8E6FC08E6FAECFFEE
:10176000EAFEE5262404F8A60608A607E5262406D0
:10177000F8E6FC08E6FAECFFEAFEE5262406F8A601
:101780000608A60722E4FF7842E6B40C0050469013
:101790001796F82828730217BA0217BD0217D50248
:1017A00017C00217D50217C30217C60217D50217B2
:1017B000C90217CC0217CF0217D2020CC502107A49
:1017C0000212650215950209090217D8020E52028B
:1017D00018F60219AC7FFF227FFF7846E6184670A4
:1017E0004518E61846703F7848E66401184670369A
:1017F0007841E6FEC4131313540164017028EE54BB
:101800001F7023783FE6640470087BFF7A1E79CF4F
:10181000800C783FE66406700DFB7A00793D7D010F
:10182000FC121A83E4FF228F288D298B2A8A2B89A8
:101830002CD3E5299400748094804035E59620E708
:10184000FBE52844E0F596E52A14601124036018AE
:1018500024FE701DAD2CAB28AF29021BABAC2BAD09
:101860002CAB28AF29021B4DAD2CAB28AF29121B86
:101870006E22C0E0C083C082C0D075D000C007E532
:10188000D230E11F53D2FDC3E508941974809480CF
:101890005011AF080508748E2FF582E43400F583EB
:1018A000E0F5D3E5D230E00353D2FED007D0D0D05C
:1018B00082D083D0E0328D2A8A2B8B2CEF64027089
:1018C00031900000E064027016A3E0FF30E004C233
:1018D000A38002D2A3EF30E104C2A28002D2A27B95
:1018E000017A007900753300753410D2017F02123D
:1018F0001419E4FEFF227845E6FE08E67DFFC39456
:1019000001EE9400502C7848E66401184670237864
:1019100044E61846701C7841E664817015783FE60D
:101920006406700E7BFF7A1E79CF7D01FC121A834C
:10193000E4FDAF0522784F760178567606785D761D
:101940000675960F75978FE59620E7FB75960175DE
:101950009701E59620E7FB75960B75970FE59620A6
:10196000E7FBE5C9A2E650047F0380027F0112195C
:1019700074021DFD8F27783FE6F528C39405748017
:101980009480400CEF9405748094805003120003FF
:10199000E527640570047840A628783FA627E52847
:1019A00065276007AD27AF28120046227FFF7846E3
:1019B000E6FE7844E6FDEEC39401748094805023E3
:1019C000783FE66406701C7848E618467015AE0548
:1019D000EE70107841E6541F64017007C200121ABD
:1019E000B6E4FF2285BF39121DBB121D89121D935B
:1019F000121DB1121CE3121CF0121CFD121D0A1262
:101A00001D9D121DD4121C73121DF4121DF0121C08
:101A100083121DA7121DC48539BF22121D4775965A
:101A200011759708E59620E7FB759691E59620E7F6
:101A3000FBE59720E3F3759611759708E59620E787
:101A4000FB759691E59620E7FBE59720E3F32212DC
:101A50001D47759614759710E59620E7FB759694CB
:101A6000E59620E7FBE59720E4F37596147597104B
:101A7000E59620E7FB759694E59620E7FBE5972031
:101A8000E4F322784FE66401702B784AA60308A697
:101A90000208A60108A60408A60508760208F6EDC5
:101AA000543F70117848E66D700318E66C60067854
:101AB00050E64410F62230000878567601785D76BC
:101AC00001D201D202C2037D407C007F011214A02A
:101AD000C201D202C2037D407C007F010214A08FAC
:101AE00027C3EF9403748094804005120081D322B1
:101AF000E52775F007A4244AF9E92405F8E664010E
:101B0000D37001C322AE07EEFB7A0064047009EDC6
:101B10007F0230E1027F0122EB64034A7009ED7F0E
:101B20000130E1027F02227F0022AD07ED4480F503
:101B300096E59620E7FBAF97EF7F00FEED1444801B
:101B4000F596E59620E7FBAD97ED4207228D828C56
:101B5000831FEF600BE59620E7FBE597F0A380F18C
:101B6000E59620E7FBEB4420F596E597F022A805E3
:101B70001FEF600BE59620E7FBE597F20880F1E5A3
:101B80009620E7FBEB4420F596E597F222D3E51784
:101B9000940074809480400CE51775F004A485F0DF
:101BA00018F5192275180075191822A8051FEF607D
:101BB0000AE59620E7FBA6970880F2E59620E7FB6A
:101BC000EB4420F596A69722E4F5C8538E9FC39F59
:101BD000FFE49EF5CB8FCA74FFF5CDF5CCD2ADD224
:101BE000CA228D828C83AE071FEE600CE59620E73B
:101BF000FBE493F597A380EE228D828C83AE071FC2
:101C0000EE600BE59620E7FBE0F597A380EF22EF6F
:101C1000600EC39406748094805005751706800288
:101C20008F17021B8DA805AE071FEE600BE59620EF
:101C3000E7FBE6F5970880EF22A805AE071FEE60E8
:101C40000BE59620E7FBE2F5970880EF22D3E51934
:101C50009400E51894004008E5191519700215184C
:101C600022783FE6C394027480948040057F051279
:101C700019742275BC3875BA1F75BB0643E840431A
:101C8000E8802275AC4375B5FF75B410E4F5D275E4
:101C9000E53D22010A00020B00010109004100811B
:101CA0000000759691E59620E7FBE597A2E4227582
:101CB0009691E59620E7FBE597A2E222759691E5DD
:101CC0009620E7FBE597A2E122759691E59620E73D
:101CD000FBE597A2E522759694E59620E7FBE5974C
:101CE000A2E62275F1FFE4F5A47580FF75D4FF220A
:101CF00075F2FF75A5017590FF75D5FC2275F3FF90
:101D0000E4F5A675A0FF75D6FF2275F4FFE4F5A7EC
:101D100075B0FF75DFFF22E51945187005121B8DA0
:101D2000D322C322759691E59620E7FBE59713220F
:101D3000759694E59620E7FBE5971322784F760198
:101D400043D78043D7402275960E8F97E59620E7BC
:101D5000FB22759686E59620E7FBAF972275968263
:101D6000E59620E7FBAF9722759684E59620E7FB82
:101D7000AF972275968EE59620E7FBAF9722759672
:101D800096E59620E7FBAF9722E5D8544042D875F8
:101D9000DA2122E5D8544042D875DB212275F5FFBF
:101DA000E4F5AE75C7FF22E4F5E675E70275A88095
:101DB00022E5D8544042D875DE0822E4F5BF53D955
:101DC000BFF5D9227BFF7A1E79AC020FCD7840E6B1
:101DD000FF02197475E24075E30122C2CF750A0152
:101DE00032783FE6FF227F17021B2A7F0D021B2A53
:101DF00075A9032275D10822AF1722D322222212FD
:101E000001000200000040474214000001010203EB
:101E100001090229000101008032090400000203C7
:101E2000000000092111010001222600070581039D
:101E3000400001070501034000010600FF0901A160
:101E40000185019506750826FF001500090181022C
:101E500085029501750826FF00150009019102C051
:101E600004030904011C0362696B6572676C656E8B
:101E70002E636F6D00012C03437573746F6D2055D5
:101E80005342204849442044657669636500011E39
:101E900003303030302D303030302D3030303100A4
:101EA000FF1E60FF1E64FF1E75FF1E8EFF1DFFFFDD
:101EB0001E11FF1EA004D4CDC6BFB8B1AAA39C9525
:101EC0008E878079736B645D565049423C382C0094
:011ED0000011
:00000001FF
